:020000040800F2
:10000000A829002045010008752100087721000873
:100010007B2100087F2100088321000800000000E8
:100020000000000000000000000000008721000820
:1000300089210008000000008B2100088D210008A4
:100040005F0100085F0100085F0100085F01000810
:100050005F0100085F0100085F0100085F01000800
:100060005F0100085F0100085F0100085F010008F0
:100070005F0100085F0100085F0100085F010008E0
:100080005F0100085F0100085F0100085F010008D0
:100090005F0100085F0100085F0100085F010008C0
:1000A0005F0100085F0100085F0100085F010008B0
:1000B0005F0100085F0100085F0100085F010008A0
:1000C0005F0100085F0100085F0100085F01000890
:1000D0005F010008672200085F0100085F01000857
:1000E0005F0100085F0100085F0100085F01000870
:1000F0005F0100085F0100085F0100085F01000860
:100100005F0100088F2100085F0100085F010008FF
:100110005F0100085F0100085F0100085F0100083F
:100120005F0100085F0100085F0100085F0100082F
:10013000DFF80CD006F040FE00480047451D0008DF
:10014000A82900200648804706480047FEE7FEE74A
:10015000FEE7FEE7FEE7FEE7FEE7FEE7FEE7FEE777
:1001600047020008310100080CB500200190009002
:100170006C48006840F480306A49086000BF6948F4
:10018000006800F4003000900198401C0190009835
:1001900018B90198B0F5A06FF1D16248006800F479
:1001A000003010B10120009001E000200090009884
:1001B000012843D15C48006840F010005A490860AB
:1001C0000846006820F0030008600846006840F018
:1001D0000200086053484068524948600846406839
:1001E00048600846406840F48060486008464068BF
:1001F00020F47C1048600846406840F4E8104860ED
:100200000846006840F08070086000BF45480068FC
:1002100000F000700028F9D04248406820F0030048
:10022000404948600846406840F00200486000BF0E
:100230003C48406800F00C000828F9D10CBD10B50E
:10024000FFF792FF10BD10B53648006840F001007E
:1002500034490860084640683449084031494860DC
:1002600008460068324908402E4908600846006880
:1002700020F4802008600846406820F4FE004860B2
:100280004FF41F008860FFF7DAFF4FF00060294944
:10029000086010BD10B5002100200022214B5B68D2
:1002A00003F00C0121B1042906D0082928D107E068
:1002B000214B224C236027E01F4B204C236023E07E
:1002C000184B5B6803F47010164B5B6803F48032C4
:1002D000022303EB904022B9194B4343174C236090
:1002E0000DE0104B5B6803F4003323B1144B434320
:1002F000124C236003E0104B4343104C236003E097
:100300000D4B0E4C236000BF00BF064B5B68C3F370
:1003100003130C4CE15C094B1B68CB40074C23607A
:1003200010BD000000100240002002400000FFF855
:10033000FFFFF6FE08ED00E000127A00000000204A
:1003400000093D000400002031490143314A116099
:10035000704770B5002100230F22C47804B32D4CE0
:10036000246804F4E064C4F5E064210AC1F10403E4
:10037000CA40447804FA03F1847814402143090107
:10038000254C0678A155047804F01F050124AC40E3
:1003900005786D11AD0005F1E025C5F8004109E0D3
:1003A000047804F01F050124AC401C4D067876113A
:1003B00045F8264070BD1A4A0A400243154B1B1FE0
:1003C0001A60704739B1134A121D12680243114B6B
:1003D0001B1D1A6006E00F4A121D126882430D4B66
:1003E0001B1D1A607047042808D14FF0E0210969ED
:1003F00041F004014FF0E022116107E04FF0E021ED
:10040000096921F004014FF0E022116170470000FA
:100410000000FA050CED00E000E400E080E100E0FF
:1004200080FFFF1F10B50446FE48844209D1012118
:10043000480601F05CF900214FF0007001F057F917
:1004400008E00121880601F052F900214FF0806098
:1004500001F04DF910BD30B50246002000231468AC
:1004600024F002041460146844F00104146000E0F5
:100470005B1C546804F001041CB94FF6FF74A342DE
:10048000F6D1546804F001040CB900206CE08C79BA
:10049000012C04D1146844F08004146003E0146853
:1004A00024F080041460CC79012C04D1146844F049
:1004B0004004146003E0146824F0400414600C7AD3
:1004C000012C04D1146844F02004146003E0146883
:1004D00024F0200414604C7A012C04D1146844F0F8
:1004E0001004146003E0146824F0100414608C7A83
:1004F000012C04D1146844F00804146003E014686B
:1005000024F008041460CC7A012C04D1146844F05F
:100510000404146003E0146824F0040414608C786C
:10052000A407CD7844EA05640D7944EA05444D7981
:1005300044EA05540D886D1E2C43D461146824F0E0
:1005400001041460002300E05B1C546804F0010403
:100550001CB14FF6FF74A342F6D1546804F00104B5
:100560000CB1002000E0012030BD10B50021837ADD
:10057000012202FA03F1AC4A126842F00102AA4BCE
:100580001A60A94A1C3212688A43A74B1C331A60AE
:10059000027BCAB9A44A0C3212688A43A24B0C33BC
:1005A0001A604288C38842EA03439F4A4032847AF1
:1005B00042F834300288838842EA03439A4A403240
:1005C000847A02EBC4025360027B012A19D1964A55
:1005D0000C3212680A43944B0C331A604288038829
:1005E00042EA0343904A4032847A42F83430C28867
:1005F000838842EA03438C4A4032847A02EBC40285
:100600005360C27A3AB9884A121D12688A43864BEF
:100610001B1D1A6006E0844A121D12680A43824BB1
:100620001B1D1A60028932B97F4A143212688A434C
:100630007D4B14331A600289012A06D17A4A14329A
:1006400012680A43784B14331A60427B012A06D1A0
:10065000754A1C3212680A43734B1C331A60724A83
:10066000126822F00102704B1A6010BD00218171E6
:10067000C171017241728172C1728170C1700321B6
:1006800001710221417101210180704766490968A9
:1006900041F00101644A11601146096843F60E7287
:1006A0009143614A11601146096841EA00211160D5
:1006B0001146096821F001011160704721B10268FB
:1006C00042F48032026003E0026822F48032026069
:1006D0007047E1B1026842F0800202604FF4C272DA
:1006E000125842F480734FF4C27213504FF4CA721E
:1006F000125842F480734FF4CA7213504FF4D272FE
:10070000125842F480734FF4D27213501BE0026807
:1007100022F0800202604FF4C272125822F48073F9
:100720004FF4C27213504FF4CA72125822F48073FD
:100730004FF4CA7213504FF4D272125822F48073DD
:100740004FF4D2721350704710B5024600209368E0
:1007500003F08063B3F1806F00D110E0936803F081
:100760000063B3F1006F01D1012008E0936803F04A
:100770008053B3F1805F01D1022000E004200428FF
:1007800079D002F5C07303EB00131B6803F001047A
:1007900002F5C07303EB00131C600B7A7BB94B7A34
:1007A0000C8843EA445302F5C07404EB0014246837
:1007B000234302F5C07404EB0014236010E00B7AAD
:1007C0004C6843EAC4034C7A234302F5C07404EB3B
:1007D00000142468234302F5C07404EB0014236062
:1007E0008B7A03F00F038B7202F5C07303EB0013D7
:1007F0005B6823F00F0402F5C07303EB00135C6029
:1008000002F5C07303EB00135B688C7A234302F597
:10081000C07404EB001463608B7B1C064B7B44EAC2
:10082000034403E000640040006600400B7B44EAA0
:100830000323CC7A234302F5C07404EB0014A360B5
:100840008B7C1C064B7C44EA03440B7C44EA032368
:10085000CC7B234302F5C07404EB0014E36002F583
:10086000C07303EB00131B6843F0010402F5C0736F
:1008700003EB00131C6010BD10B50246002321B12C
:10088000012907D002290FD109E09068F94C00EA4C
:1008900004030BE09068F84C00EA040306E090685B
:1008A000F64C00EA040301E0002300BF00BFF44C53
:1008B000181BA34216D007DC83B16FF08060184488
:1008C00070B1022818D111E0B0F5007F10D0ED4CC6
:1008D000204448B1B0F5003F0ED10BE002230DE0FB
:1008E00000230BE0002309E0002307E0012305E0DB
:1008F000012303E0012301E0002300BF00BFD8B2C1
:1009000010BD21B1012907D002290FD109E0826869
:1009100042F0800282600AE0826842F40042826013
:1009200005E0826842F40002826000E000BF00BF80
:10093000704710B500F5D87303EB01131B6803F083
:1009400004031372137A53B900F5D87303EB011340
:100950001B6840F2FF7404EA5353136009E000F58A
:10096000D87303EB01131B686FF0604404EAD303F0
:10097000536000F5D87303EB01131B6803F0020307
:10098000537200F5D87303EB01135B6803F00F0398
:10099000937200F5D87303EB01135B681B0AD374E1
:1009A00000F5D87303EB01139B68D37200F5D8737D
:1009B00003EB01139B681C0A147300F5D87303EB57
:1009C00001139B681C0C547300F5D87303EB0113DF
:1009D0009B681B0E937300F5D87303EB0113DB6860
:1009E000D37300F5D87303EB0113DB681C0A14748E
:1009F00000F5D87303EB0113DB681C0C547400F58D
:100A0000D87303EB0113DB681B0E937421B9C36821
:100A100043F02003C36003E0036943F02003036154
:100A200010BD21B9C26842F02002C26003E0026931
:100A300042F02002026170470246002019B9D368D3
:100A400003F0030006E0012903D1136903F003005A
:100A500000E00020704710B502460B4600204FF61C
:100A6000FF71BBB9146824F0020444F0010414605F
:100A700000E0491E546804F00304012C01D0002951
:100A8000F7D1546804F00304012C01D0002032E0B7
:100A9000012030E0012B13D1146824F0030414600A
:100AA00000E0491E546804F003040CB10029F8D199
:100AB000546804F003040CB100201CE001201AE08B
:100AC000022B17D1146824F0010444F002041460CE
:100AD00000E0491E546804F00304022C01D00029F0
:100AE000F7D1546804F00304022C01D0002002E086
:100AF000012000E0002010BD014600200A6822F01D
:100B0000010242F002020A604A6802F00302022A6D
:100B100000D10120704701464FF6FF7200200B689C
:100B200023F002030B6000E0521E4B6803F0020347
:100B3000022B01D1002AF7D14B6803F00203022BEC
:100B400000D001207047014600208A6902F0700041
:100B50007047014600208A69100E70470146002048
:100B60008A69C2F3074070471AB143690B43436176
:100B700002E043698B434361704710B50246002091
:100B800001F4700343B19369C1F3130423400BB123
:100B900001202DE000202BE001F0807343B1536869
:100BA000C1F3130423400BB1012021E000201FE01A
:100BB00001F0006343B19368C1F3130423400BB108
:100BC000012015E0002013E001F0007343B1D36869
:100BD000C1F3130423400BB1012009E0002007E01A
:100BE0001369C1F3130423400BB1012000E000207E
:100BF00010BD0022244B994202D10023836111E0F1
:100C0000C1F3130201F000730BB1C2600AE001F0FE
:100C100080630BB1026105E001F000630BB18260FB
:100C200000E0426070470246002002EA01030BB177
:100C3000012000E00020704770B504460D460026F4
:100C400060692840002872D0B5F5807F69D01DDC2E
:100C5000082D42D006DC012D2DD0022D31D0042DDF
:100C60007FD134E0102D3ED0202D42D0402D78D1C0
:100C700045E000000300000400030008000003102A
:100C8000000100080001FFF77000F030B5F5004FDB
:100C900061D009DCB5F5007F4AD0B5F5806F4DD045
:100CA000B5F5006F5DD150E0B5F5803F2DD0B5F5BD
:100CB000003F56D12FE0A0685549FFF7B4FF064624
:100CC00051E0E0680321FFF7AEFF06464BE0E06825
:100CD0000821FFF7A8FF064645E0E0681021FFF76E
:100CE000A2FF06463FE020690321FFF79CFF06466E
:100CF00039E020690821FFF796FF064633E02069B6
:100D00001021FFF790FF06462DE060680821FFF7ED
:100D10008AFF064627E060681021FFF784FF064639
:100D200021E0A0690121FFF77EFF06461BE01BE0E2
:100D3000A0690221FFF777FF064614E0A0690421AD
:100D4000FFF771FF06460EE00BE0A0697021FFF788
:100D50006AFF064607E060680421FFF764FF064665
:100D600001E0002600BF00E00026304670BDB1F56E
:100D7000007F3AD00FDC202928D006DC01291CD0C6
:100D800004291DD0082940D11DE0402921D0B1F50A
:100D9000807F3AD126E0B1F5004F31D006DCB1F5C5
:100DA000806F25D0B1F5006F2FD124E0B1F5803FE1
:100DB00012D0B1F5003F28D111E0154A826025E03C
:100DC0000822C26022E01022C2601FE008220261F5
:100DD0001CE01022026119E00822426016E0102295
:100DE000426013E00422426010E0042242600DE001
:100DF000042242600AE0002282610422426005E08F
:100E0000002282610422426000E000BF00BF704700
:100E10000101010001684FF6FE72114001600021DE
:100E2000016041608160C1608D49884208D18C4970
:100E30000839496841F00F01894A083A51608AE04F
:100E400087491431884208D185490839496841F0F9
:100E5000F001834A083A51607DE081492831884297
:100E600008D17F490839496841F470617C4A083AE1
:100E7000516070E07A493C31884208D1784908399C
:100E8000496841F47041764A083A516063E0744918
:100E90005031884208D172490839496841F47021BB
:100EA0006F4A083A516056E06D496431884208D172
:100EB0006B490839496841F47001694A083A516040
:100EC00049E067497831884208D16549083949685D
:100ED00041F07061624A083A51603CE061498842E1
:100EE00006D1011F096841F00F01021F116032E0B5
:100EF0005C491431884208D15A49091F096841F0F8
:100F0000F001584A121F116025E0564928318842E5
:100F100008D15449091F096841F47061514A121FF0
:100F2000116018E04F493C31884208D14D49091FF2
:100F3000096841F470414B4A121F11600BE04949A6
:100F40005031884207D14749091F096841F470218F
:100F5000444A121F1160704710B50022026847F61C
:100F6000F0739A430C6A8B6823430C6923434C69E2
:100F700023438C692343CC6923434C6A23438C6A03
:100F800023431A430260CB6843600B6883604B685D
:100F9000C36010BD0021016041608160C1600161DA
:100FA00041618161C161016241628162704721B129
:100FB000026842F00102026004E002684FF6FE732C
:100FC0001A40026070471AB103680B43036002E0E5
:100FD00003688B430360704741607047014648686F
:100FE00080B2704701460020002201F080531BB1FF
:100FF0001C4B083B1A6802E0194B083B1A6802EACE
:1010000001030BB1012000E00020704700F0805187
:1010100019B11449091F086002E0114908394860F4
:10102000704701460020002201F080531BB10D4B98
:10103000083B1A6802E00A4B083B1A6802EA0103FF
:101040000BB1012000E00020704700F0805119B181
:101050000449091F086002E00149083948607047E7
:10106000080002400804024010B50446CC488442FF
:1010700008D10121042000F02DFB0021042000F004
:1010800029FB46E0C748844208D10121082000F02E
:1010900021FB0021082000F01DFB3AE0C2488442F9
:1010A00008D10121102000F015FB0021102000F0D4
:1010B00011FB2EE0BD48844208D10121202000F020
:1010C00009FB0021202000F005FB22E0B848844203
:1010D00008D10121402000F0FDFA0021402000F05D
:1010E000F9FA16E0B348844208D10121802000F0CB
:1010F000F1FA0021802000F0EDFA0AE0AE488442C7
:1011000007D10121801500F0E5FA0021A01500F0BB
:10111000E1FA10BD10B50121084600F0DBFA00210C
:10112000012000F0D7FA10BD2DE9F041024600255C
:101130000026002000230024002791F803C00CF0B3
:101140000F0591F803C00CF0100CBCF1000F03D098
:1011500091F802C04CEA050591F800C0BCF1000FFF
:1011600031D0146800202BE04FF0010C0CFA00F392
:10117000B1F800C00CEA03069E4220D183004FF074
:101180000F0C0CFA03F7BC4305FA03FC4CEA040409
:1011900091F803C0BCF1280F06D14FF0010C0CFAF6
:1011A00000FCC2F814C00AE091F803C0BCF1480F7B
:1011B00005D14FF0010C0CFA00FCC2F810C0401C25
:1011C0000828D1D31460B1F800C0BCF1FF0F34DDA2
:1011D000546800202EE000F1080C4FF0010808FAD6
:1011E0000CF3B1F800C00CEA03069E4221D1830043
:1011F0004FF00F0C0CFA03F7BC4305FA03FC4CEA62
:10120000040491F803C0BCF1280F05D100F1080CCB
:1012100008FA0CF8C2F8148091F803C0BCF1480F2A
:1012200007D100F1080C4FF0010808FA0CF8C2F8D9
:101230001080401C0828CED35460BDE8F0814FF6E2
:10124000FF710180022181700421C1707047024644
:10125000002093680B400BB1012000E00020704794
:101260000146886880B2704702460020D3680B4070
:101270000BB1012000E0002070470146C86880B231
:10128000704701617047416170470AB1016100E038
:1012900041617047C16070474FF480320A438261F8
:1012A0008161826182698269704702460020434BF6
:1012B00018684FF68073184040EA021008433F4B0D
:1012C000186070473E49C8617047F0B50A46002370
:1012D00000240021002500F00046B6F1004F02D1A5
:1012E000364EF16901E0354E7168C0F3034583B2B3
:1012F00000F44016B6F5401F08D121F070612F4E62
:10130000766826F070662D4F7E6012E000F480163D
:10131000B6F5801F06D1032606FA05F4A14341F075
:10132000706106E0460D360103FA06F6B14341F05E
:10133000706122B1460D360103FA06F6314300F022
:101340000046B6F1004F02D11C4EF16101E01B4E88
:101350007160F0BD30B500228B071C0F0F2303FA1C
:1013600004F2164B08338C1053F824309343134C7B
:1013700008348D1044F8253023468C1053F824305F
:101380008C07240F00FA04F423430C4C08348D100E
:1013900044F8253030BD0A49DC3108607047000050
:1013A00000080140000C0140001001400014014001
:1013B00000180140001C01400020014000000140D5
:1013C00000002042DF48006840F00100DD4908606D
:1013D00008464068DC490840DA4948600846006829
:1013E000DA490840D74908600846006820F48020A0
:1013F00008600846406820F4FE0048604FF41F0073
:1014000088607047CF49096821F48031CD4A116066
:101410001146096821F480211160B0F5803F03D0A6
:10142000B0F5802F0ED106E0C649096841F480313D
:10143000C44A116007E0C349096841F4A021C14AC8
:10144000116000E000BF00BF704710B501460022E8
:10145000002300204A11012A02D1BA4C236806E079
:10146000022A02D1B74C236A01E0B64C636A01F04C
:101470001F02012494401C400CB1012000E0002018
:1014800010BD38B5002000900024002500BF312099
:10149000FFF7DBFF05460098401C00900098B0F570
:1014A000A06F01D0002DF2D03120FFF7CEFF08B1A0
:1014B000012400E00024204638BD01460020A14A56
:1014C000106820F0F80040EAC10010607047A049A1
:1014D00008607047024600209A4B586820F47C1040
:1014E00042EA01031843974B5860704798490866D1
:1014F000704701460020934A506820F003000843DB
:10150000506070478F48406800F00C0070470146FB
:1015100000208C4A506820F0F0000843506070476B
:1015200001460020874A506820F4E060084350607C
:10153000704701460020834A506820F4605040EA1A
:10154000C1005060704729B17E4A527A02437D4BF8
:101550005A7204E07B4A527A82437A4B5A7270473D
:101560007B49D8310860704701460020754A5068B1
:1015700020F440400843506070470021714A2032F7
:101580001170704A82F82010012802D004280AD174
:1015900004E001216B4A2032117005E00521694AFF
:1015A0002032117000E000BF00BF70476949086039
:1015B00070476449096A0143624A1162704765498C
:1015C00044390860704730B5002100220024002310
:1015D0005C4D6D6805F00C0121B1042905D0082986
:1015E00023D105E05C4D056022E05B4D05601FE006
:1015F000544D6D6805F47012524D6D6805F48034D9
:10160000022505EB92421CB9544D554305600BE091
:101610004C4D6D6805F400351DB1504D55430560C6
:1016200002E04D4D5543056002E04B4D056000BFA3
:1016300000BF444D6D6805F0F0010909484D6B5C31
:101640000568DD4045603F4D6D6805F4E061090ABD
:10165000434D6B5C4568DD4085603A4D6D6805F42F
:101660006051C90A3E4D6B5C4568DD40C560354D33
:101670006D6805F44041890B3A4D6B5CC568B5FB5C
:10168000F3F5056130BD29B12E4A526902432D4B55
:101690005A6104E02B4A526982432A4B5A617047CF
:1016A00029B1284A92690243264B9A6104E0254AEF
:1016B00092698243234B9A61704729B1214AD269CA
:1016C0000243204BDA6104E01E4AD26982431D4B7B
:1016D000DA61704729B11B4AD2680243194BDA60BC
:1016E00004E0184AD2688243164BDA60704729B189
:1016F000144A12690243134B1A6104E0114A126939
:101700008243104B1A617047124940390860704794
:101710000F49C86470470B49C87170470948406A4F
:1017200040F0807007494862704701460020054A32
:1017300092680A400AB1012000E000207047014988
:1017400088727047001002400000FFF8FFFFF6FEAD
:10175000000042428004424200127A0000093D002B
:10176000140000202400002000206F490860486019
:101770008860C86048628862C8626C4888630020DC
:10178000C86370470021684A516847F6FF62914379
:10179000027D83681A4343681A43C3681A43036887
:1017A0001A4303691A4311435F4A5160704700218D
:1017B0000175016041608160C160016170475C49F1
:1017C000086070475849096821F00301564A1160C2
:1017D000114609680143116070475348006800F0E2
:1017E0000300704729B1504AD26B02434E4BDA6373
:1017F00004E04D4AD26B82434B4BDA6370474D494C
:10180000086070470021484B02689A601A46D16808
:101810006FF30A01D0E901231A43C3681A4303692D
:101820001A431143404AD160704700210160416072
:101830008160C160016170473B480069C0B2704778
:1018400008B5014600200090374814300844009045
:101850000098006808BD0021334B02685A62426854
:101860009A621A46D16A21F0F701D0E902231A439D
:1018700003691A4343691A4311432B4AD1627047E3
:101880004FF0FF310160002141608160C160016162
:10189000416170472448006B7047234880300068DE
:1018A000704721498031086070471F48806C70473D
:1018B00020491431086070471E491831086070478C
:1018C0001C491C31086070471A4920310860704774
:1018D0001949086070471849091D086070470121BF
:1018E0008143154A08321160704713490C31086072
:1018F0007047014600200C4A526B0A400AB1012091
:1019000000E00020704708498863704701460020C6
:10191000054A526B0A400AB1012000E000207047DE
:10192000014988637047000000800140FF07C00044
:10193000A00030428C053042AC01304210B5044664
:10194000FB48844209D101218803FFF7C3FE00212F
:101950004FF48040FFF7BEFE32E0F648844209D1E2
:1019600001214804FFF7C3FE00214FF40030FFF7C8
:10197000BEFE25E0F048844209D101218804FFF72A
:10198000B6FE00214FF48020FFF7B1FE18E0EB48CF
:10199000844209D10121C804FFF7A9FE00214FF4B8
:1019A0000020FFF7A4FE0BE0E548844208D10121A6
:1019B0000805FFF79CFE00214FF48010FFF797FE0B
:1019C00010BD2DE9F04786B005460E460024A2461C
:1019D00000BFA1460027B08900B100BF2F462C8A66
:1019E0004CF6FF700440F08804432C82AC894EF61C
:1019F000F3100440B08831890843718908430443D7
:101A0000AC81AC8A4FF6FF400440B0890443AC82FD
:101A100001A8FFF7D8FDC648874202D1DDF810A023
:101A200001E0DDF80CA0A88900F4004040B10AEB09
:101A3000CA0000EB0A1031684900B0FBF1F807E07A
:101A40000AEBCA0000EB0A1031688900B0FBF1F81C
:101A50006420B8FBF0F004012009642101FB108927
:101A6000A88900F4004040B1322000EBC900B0FB6F
:101A7000F1F000F00700044308E0322000EB091009
:101A80006421B0FBF1F000F00F0004432C8106B09C
:101A9000BDE8F0874FF41651016000218180C180BC
:101AA00001810C21418100218181704710B50246DE
:101AB0000020108A4FF2FF0318400B884C88234304
:101AC0008C882343CC8823431843108210BD002107
:101AD000018041808180C180704721B1828942F4B8
:101AE0000052828104E082894DF6FF731A408281A0
:101AF0007047F0B50346002400260025002040F67C
:101B00006A17B94200D100BF1846C1F3421401F070
:101B10001F06012707FA06F5012C01D10C3004E05D
:101B2000022C01D1103000E014301AB107682F43A5
:101B3000076002E00768AF430760F0BD1AB1838A0F
:101B40000B43838202E0838A8B4383827047028A3D
:101B50004FF6F0731A400282028A0A4302827047EB
:101B600082894FF2FF731A40828182890A438281FF
:101B7000704721B1828942F00202828104E08289A9
:101B80004FF6FD731A4082817047028A4FF6DF7369
:101B90001A400282028A0A430282704721B1028AF5
:101BA00042F48042028204E0028A4BF6FF731A403C
:101BB00002827047C1F3080282807047014688881C
:101BC000C0F308007047818941F0010181817047AD
:101BD000028BD2B20283028B42EA01220283704757
:101BE000028B02F47F420283028B0A430283704716
:101BF00021B1828A42F02002828204E0828A4FF67A
:101C0000DF731A408282704721B1828A42F010024B
:101C1000828204E0828A4FF6EF731A408282704714
:101C200021B1828A42F00802828204E0828A4FF661
:101C3000F7731A408282704721B1828942F40042D0
:101C4000828103E08289C2F30E028281704721B152
:101C5000828A42F40062828204E0828A4FF2FF7339
:101C60001A4082827047828A4FF6FB731A40828242
:101C7000828A0A438282704721B1828A42F002023C
:101C8000828204E0828A4FF6FD731A408282704796
:101C900002460020B1F5007F00D100BF13880B4041
:101CA0000BB1012000E00020704701F40072B2F592
:101CB000007F00D100BFCA430280704770B5024662
:101CC000002400230025002040F66A16B14200D10E
:101CD00000BFC1F3421501F01F03012606FA03F30A
:101CE000012D02D19689334006E0022D02D1168AD9
:101CF000334001E0968A33400C12012606FA04F4C0
:101D00001688344013B10CB1012000E0002070BDF2
:101D100010B50022002340F66A14A14200D100BF92
:101D20000A1201249440A3B2DC43048010BD0000D9
:101D3000003801400044004000480040004C004092
:101D4000005000404FF4E13000F036FA01F057FE49
:101D500056A005F043F801225FA1604803F014FB90
:101D60005F490870084600780D2823D15DA005F072
:101D700035F80022114658A004F07EFA5849087040
:101D80000846007888B962A005F028F8012252A11F
:101D9000002003F0F9FA5249087001224EA14F4881
:101DA00003F0F2FA4E49087014E061A005F016F84D
:101DB00000BFFEE74A48007848B14948017862A070
:101DC00005F00CF869A005F009F800BFFEE770A067
:101DD00005F004F878A005F001F80A2281A18748EF
:101DE00003F0FDFA3E49087008460078002820D12B
:101DF00083A004F0F3FF924B3A2292497F4803F00C
:101E00009DFC374908700846007848B98C4801683D
:101E10008DA004F0E3FF8B4994A004F0DFFF04E001
:101E20002F48017899A004F0D9FF744803F0E4FD2D
:101E300002E09CA004F0D2FFA1A004F0CFFF012299
:101E400068A16E4803F0CBFA25490870084600786F
:101E500000281ED1A4A004F0C1FF794B4FF480628A
:101E6000A649664803F07AFB1D49087008460078C9
:101E700048B973480168A2A004F0B0FF9F49A9A027
:101E800004F0ACFF08E016480178AEA004F0A6FF0D
:101E900002E0B2A004F0A2FF584803F0ADFD012219
:101EA0000DA1002003F070FA00BFFEE70D0A2A2AF8
:101EB0002A2A2A2A20D5E2CAC7D2BBB8F65344BF81
:101EC000A820CEC4BCFECFB5CDB3CAB5D1E9202A77
:101ED0002A2A2A2A2A0D0A00303A000090000020FF
:101EE00028000020A1B75344BFA8BBB9C3BBD3D0BF
:101EF000CEC4BCFECFB5CDB3A3ACBCB4BDABBDF8B6
:101F0000D0D0B8F1CABDBBAF2E2E2E0D0A000000F6
:101F1000A1B75344BFA8D2D1B3C9B9A6B8F1CABDBD
:101F2000BBAFCEC4BCFECFB5CDB3A1A30D0A00009C
:101F3000A1B6A1B6B8F1CABDBBAFCAA7B0DCA1A318
:101F4000A1B7A1B70D0A0000A3A1A3A15344BFA844
:101F5000B9D2D4D8CEC4BCFECFB5CDB3CAA7B0DCFD
:101F6000A1A3282564290D0A00000000A3A1A3A1B4
:101F7000BFC9C4DCD4ADD2F2A3BA5344BFA8B3F5F1
:101F8000CABCBBAFB2BBB3C9B9A6A1A30D0A0000BE
:101F9000A1B7CEC4BCFECFB5CDB3B9D2D4D8B3C9E6
:101FA000B9A6A3ACBFC9D2D4BDF8D0D0B6C1D0B405
:101FB000B2E2CAD40D0A00000D0A2A2A2A2A2A2AC5
:101FC00020BCB4BDABBDF8D0D0CEC4BCFED0B4C82C
:101FD000EBB2E2CAD42E2E2E202A2A2A2A2A2A0D31
:101FE0000A000000303A4661744673B6C1D0B4B2FC
:101FF000E2CAD4CEC4BCFE2E74787400C010002097
:10200000A1B7B4F2BFAA2FB4B4BDA8466174467399
:10201000B6C1D0B4B2E2CAD4CEC4BCFE2E747874B9
:10202000CEC4BCFEB3C9B9A6A3ACCFF2CEC4BCFE2D
:10203000D0B4C8EBCAFDBEDDA1A30D0A00000000AC
:102040002C00002030000020A1B7CEC4BCFED0B4CC
:10205000C8EBB3C9B9A6A3ACD0B4C8EBD7D6BDDA28
:10206000CAFDBEDDA3BA25640A000000A1B7CFF205
:10207000CEC4BCFED0B4C8EBB5C4CAFDBEDDCEAA8A
:10208000A3BA0D0A25730D0A00000000A3A1A3A1A5
:10209000CEC4BCFED0B4C8EBCAA7B0DCA3BA282516
:1020A00064290A00A3A1A3A1B4F2BFAA2FB4B4BDAE
:1020B000A8CEC4BCFECAA7B0DCA1A30D0A000000D4
:1020C0002A2A2A2A2A2A20BCB4BDABBDF8D0D0CEF9
:1020D000C4BCFEB6C1C8A1B2E2CAD42E2E2E202A9C
:1020E0002A2A2A2A2A0D0A00A1B7B4F2BFAACEC40E
:1020F000BCFEB3C9B9A6A1A30D0A0000E4200020CC
:10210000A1B7CEC4BCFEB6C1C8A1B3C9B9A62CB68E
:10211000C1B5BDD7D6BDDACAFDBEDDA3BA25640DF3
:102120000A000000A1B7B6C1C8A1B5C3B5C4CEC4EA
:10213000BCFECAFDBEDDCEAAA3BA0D0A2573200DD2
:102140000A000000A3A1A3A1CEC4BCFEB6C1C8A1D1
:10215000CAA7B0DCA3BA282564290A00A3A1A3A1B9
:10216000B4F2BFAACEC4BCFECAA7B0DCA1A30D0ABC
:1021700000000000704700BFFEE700BFFEE700BFA1
:10218000FEE700BFFEE7704770477047704710B525
:1021900001F072FB10BD000070B504460D46E1B2BF
:1021A0003E48FFF707FD00BF80213C48FFF770FD68
:1021B0000028F9D0204670BD10B586B00446012134
:1021C0000420FFF76DFA01218803FFF769FA012166
:1021D0000846FFF765FA4FF40070ADF814000320CD
:1021E0008DF8160018208DF8170005A92C48FEF769
:1021F0009BFF4FF48060ADF8140004208DF81700A9
:1022000005A92748FEF790FF01940020ADF80800CB
:10221000ADF80A00ADF80C00ADF810000C20ADF8D8
:102220000E0001A91D48FFF7CCFB01211B48FFF759
:1022300054FC40211948FFF738FD012240F2255196
:102240001648FFF756FC25208DF8000003208DF876
:1022500001008DF8020001208DF803006846FEF7AA
:1022600078F806B010BD10B540F225510B48FFF7C5
:1022700025FD70B10948FFF7A1FCC4B2214607480B
:10228000FFF798FC00BF40210448FFF701FD01283B
:10229000F9D140210148FFF708FD10BD0038014089
:1022A0000008014008B50020FFF789FA0020FFF779
:1022B00089FAFFF759FA00214FF48060FFF7E3F93C
:1022C0004FF4F850ADF8000004208DF80300694683
:1022D000FA48FEF729FF0420ADF800006946F848E7
:1022E000FEF722FF08BD08B501213020FFF7D8F91D
:1022F0004FF4F850ADF8000003208DF802001820CC
:102300008DF803006946ED48FEF70EFF0420ADF896
:1023100000006946EA48FEF707FF01218802FFF73F
:10232000B2F901210220FFF7AEF908BD08B54FF45C
:10233000C060FEF709F831208DF8000000208DF80C
:1023400001008DF8020001208DF803006846FEF7B9
:1023500000F808BD10B5DB48FEF744FE10BD30B5EF
:102360008BB005460C46D848FEF750FE0021D748F2
:10237000FEF71DFED6480090019500200290A008AF
:10238000039000200490802005908000069080003B
:102390000790002008904FF40050099000200A9008
:1023A0006946CA48FEF7D8FD0121C848FEF7FFFD7F
:1023B0000BB030BD30B58BB005460C46C248FEF7B9
:1023C00025FE0021C148FEF7F2FDC14800900195AD
:1023D00010200290A0080390002004908020059017
:1023E0008000069080000790002008904FF4005075
:1023F000099000200A906946B448FEF7ADFD01211E
:10240000B248FEF7D4FD0BB030BD014600BFB04866
:102410008038406B00F045000028F8D040F2FF50B3
:10242000AB4A803A90631046406908221040C0B21F
:1024300070472DE9FC4107460D4600260024002088
:10244000009001900820A3490860102048604020B7
:1024500088600020C8604FF4806008610846FFF77C
:10246000D1F91020FFF7D1FF044614B12046BDE892
:10247000FC8199480088000496490860372048602C
:10248000402088600020C8604FF4806008610846E2
:10249000FFF7B8F93720FFF7B8FF04460CB1204624
:1024A000E5E74FF0FF308D49086008204860302094
:1024B00088600220C8600020086101204861084649
:1024C000FFF7C9F9002083490860332048604020A5
:1024D00088600020C8604FF4806008610846FFF7FC
:1024E00091F93320FFF791FF04460CB12046BEE777
:1024F00009E04FF40010FFF7FCF920B1FFF7CDF928
:102500004DF82600761C72488038406B40F22A61F4
:1025100008400028EDD00820FFF7EBF928B108208B
:10252000FFF7F1F904242046A1E70220FFF7E1F9C3
:1025300028B10220FFF7E7F90224204697E7202080
:10254000FFF7D7F928B12020FFF7DDF90624204650
:102550008DE74FF40070FFF7CCF930B14FF4007005
:10256000FFF7D1F90724204681E740F2FF50FFF73B
:10257000CAF900980006009901F47F4140EA012061
:10258000009901F47F0140EA1120009940EA1160AE
:10259000686001980006019901F47F4140EA01203A
:1025A000019901F47F0140EA1120019940EA11608C
:1025B000286020465BE77CB505460024002000909B
:1025C0000190FFF73DF900F0007010B10E24204695
:1025D0007CBD4149098888B26946FFF72AFF044655
:1025E0000CB12046F4E7012D36D1019800F480208B
:1025F00000282ED03848008800043649086037206B
:102600004860402088600020C860A8020861084631
:10261000FFF7F8F83720FFF7F8FE04460CB1204624
:10262000D6E702202B4908600620486040208860D9
:102630000020C8604FF4806008610846FFF7E2F8A8
:102640000620FFF7E2FE04460CB12046C0E7204614
:10265000BEE725242046BBE7019800F48030F8B39C
:102660001D48008800041B4908603720486040204E
:1026700088600020C8604FF4806008610846FFF75A
:10268000C1F83720FFF7C1FE04460CB120469FE792
:102690000020104908600620486040208860002023
:1026A000C8604FF4806008610846FFF7ABF8062069
:1026B000FFF7ABFE0446A4B1204689E700100140B5
:1026C000001401400020001000F0001044040240FB
:1026D000808001407C250020700000209025002093
:1026E00001E0204674E72524204671E770B50446D2
:1026F0000025FB480068032802D12725284670BD25
:10270000F748006838B1F6480068012803D0F4485B
:10271000006802282ED1B4F5805F02D12725284613
:10272000EDE7B4F5006F14D10120FFF744FF054633
:1027300005BB0120EB4908750020086048608860EF
:102740004FF40060C860002008610846FFF71AF8DF
:1027500010E00020FFF72FFF05465DB90120E14999
:1027600008750020086048608860C86008610846F5
:10277000FFF708F82846C2E770B504460025DA4896
:1027800004600720D8494860402088600020C86065
:102790004FF4806008610846FFF734F80720FFF720
:1027A00034FE0546284670BD30B5014600200022A3
:1027B000CB4B1B7881F84E30CC4B1B88A1F84C30AA
:1027C000CB4B1B681A0E93090B70C2F383034B703B
:1027D00002F003038B70C64B1B68C3F30742CA7039
:1027E000C34B1B88C3F307220A71C14B1A784A7185
:1027F0005B681A0E1301CB80BD4B5B68C3F30742C5
:10280000CB8843EA1213CB8002F00F030B72B84B54
:102810009B88C3F30722D3094B72C2F380138B72D8
:10282000C2F34013CB72C2F300130B7300234B733C
:10283000AB4B1B681BB1AA4B1B68012B3CD1930708
:102840001B0D0B61AA4B1A790B6943EA82030B61DA
:10285000A74B9B681A0E0B6943EA92130B61C2F3F4
:10286000C2030B7502F007034B75A14B9B68C3F3C2
:10287000074253098B75C2F38203CB7593075B0F35
:102880000B769B4B1B89C3F307220B7E43EAD213C3
:102890000B760B695B1C4B640C7E4B6CA41C0125F6
:1028A000A5406B434B640C7A0123A3408B64D1E9B0
:1028B000113463434B6421E0894B1B68022B1DD10B
:1028C0008B4B1A7993069B0A0B61894B9B681A0EF6
:1028D0000B6943EA02230B61854B9B68C3F30742F4
:1028E0000B6913430B61824B1B89C3F307220B69EE
:1028F0005B1CDB044B644FF400738B64C2F38013E6
:1029000001F8193F93065B0E4B70794B1A7A4B789E
:1029100043EAD2134B7002F07F038B70744BDB6879
:102920001A0ED309CB70C2F341130B71C2F38203A9
:102930004B7193071B0F8B716D4BDB68C3F3074221
:102940008B7943EA92138B71C2F34013CB7100234E
:102950000B7202F001034B72654B9B89C3F3072294
:10296000D3098B72C2F38013CB72C2F340130B7383
:10297000C2F300134B73C2F381038B7302F00303A2
:10298000CB735B4B1A7B53080B7401234B74594B6D
:102990001B681A0ECA741939564B1B68C3F30742D9
:1029A0001402CC85534B1B88C3F30722CB8D1343F2
:1029B000CB85504B1A7814060C635B681A0E0B6BB0
:1029C00043EA02440C634B4B5B68C3F307420B6B57
:1029D00043EA02240C63474B9B88C3F307220B6B2B
:1029E00013430B63434B1A7934235A54414B9B686E
:1029F0001A0E35235A543F4B9B68C3F30742140603
:102A00008C633C4B1B89C3F307228B6B43EA024464
:102A10008C63384B1A7A8B6B43EA02248C63354BF8
:102A2000DB681A0E8B6B13438B63324BDB68C3F38B
:102A300007423C235B5C43EA12143C235C541307BB
:102A40001C0DCC872B4B9B89C3F30722CB8F1343E1
:102A5000CB87284B1A7B540840235C540124412324
:102A60005C5430BD70B500252348446B01E022481A
:102A7000446B04F045000028F9D004F0040028B1AC
:102A800003250420FEF73FFF284670BD04F0010037
:102A900028B101250120FEF736FF2846F5E740F270
:102AA000FF50FEF730FF2846EFE72DE9F0410646DC
:102AB0000F464FF000081048456B01E00E48456B8B
:102AC00005F045000028F9D005F00400B0B14FF042
:102AD00003080420FEF717FF4046BDE8F081000020
:102AE0006C000020642500207C2500207000002060
:102AF000E4240020F42400200080014005F00100BF
:102B000030B14FF001080120FEF7FDFE4046E4E73A
:102B1000FEF792FEB04203D04FF010084046DCE7CB
:102B200040F2FF50FEF7EFFE0020FEF789FE04465C
:102B300004F4604018B9200C38804046CDE704F416
:102B4000005008B11320C8E704F4804008B11020F9
:102B5000C3E704F4004008B10F20BEE74046BCE7DD
:102B600038B5002401200090FEF737FE10B9252467
:102B7000204638BDF8480068042828D00020F749CE
:102B8000086002204860C02088600020C8604FF4C0
:102B9000806008610846FEF735FEFFF763FF0446D4
:102BA0000CB12046E5E70020FEF74AFEEC4908603C
:102BB0000420FEF745FEEA4948600820FEF740FE83
:102BC000E74988600C20FEF73BFEE549C860E24813
:102BD000006858B1E0480068012807D0DE48006866
:102BE000062803D0DC480068022816D10020DB4903
:102BF000086003204860402088600020C8604FF4CF
:102C0000806008610846FEF7FDFD69460320FFF776
:102C10004CFF04460CB12046ABE7CF4800680428BF
:102C20002ED0BDF80000CF490860BDF800000004B8
:102C3000CA49086009204860C02088600020C86038
:102C40004FF4806008610846FEF7DCFDFFF70AFFDD
:102C500004460CB120468CE70020FEF7F1FDC24986
:102C600008600420FEF7ECFDBF4948600820FEF72D
:102C7000E7FDBD4988600C20FEF7E2FDBA49C86057
:102C80000024204675E770B50025B848446B01E084
:102C9000B648446B04F045000028F9D004F0040065
:102CA00028B103250420FEF72EFE284670BD40F211
:102CB000FF50FEF728FE2846F8E770B500264FF4CF
:102CC0008035AA48446B02E06D1EA848446B04F0AE
:102CD000450008B9002DF7D115B104F0040028B162
:102CE00003260420FEF70FFE304670BD04F04000BE
:102CF00028B100264020FEF706FE3046F5E73046B4
:102D0000F3E770B500254FF4803400E0641E24B171
:102D10008020FEF7EEFD0028F8D014B903252846E0
:102D200070BD40F2FF50FEF7EEFD2846F8E72DE9B2
:102D3000F0410024002600250027A046B2208C493F
:102D400008750020086048608860C860086108460F
:102D5000FEF718FD0320FEF735FD0120FEF72FFDDD
:102D600000207E49086048608860C8604FF4806039
:102D700008610846FEF746FDFFF7C3FF044614B19D
:102D80002046BDE8F0814FF4D570744908600820F2
:102D90004860402088600020C8604FF4806008616F
:102DA0000846FEF72FFDFFF788FF04462CB90120E7
:102DB000694908604FF0804812E0002067490860C8
:102DC00037204860402088600020C8604FF4806051
:102DD00008610846FEF716FD3720FFF716FB04468C
:102DE00000205E490860372048604020886000204D
:102DF000C8604FF4806008610846FEF703FD372085
:102E0000FFF703FB0446002C4AD136E0002053496B
:102E1000086037204860402088600020C8604FF478
:102E2000806008610846FEF7EDFC3720FFF7EDFAF9
:102E300004460CB12046A4E74E4848EA0000474942
:102E4000086029204860402088600020C8604FF456
:102E5000806008610846FEF7D5FCFFF714FF0446C2
:102E60000CB120468DE70020FEF7EAFC0646012063
:102E700080EAD67080F001076D1C1FB94FF6FF7015
:102E80008542C3D34FF6FF70854202D31B242046F0
:102E900077E706F08040061E02D002202E49086027
:102EA00020466EE710B50024FFF740FAFFF71BFA43
:102EB000FEF75AFCFFF73BFF04460CB1204610BD5D
:102EC000FFF74EFE04460CB12046F8E701202849E2
:102ED00008750020086048608860C860086108467E
:102EE000FEF750FC1CB92448FFF75EFC044634B9D9
:102EF0002149B1F84C100804FFF73EFC044624B900
:102F00004FF40060FFF7F2FB04462046D7E770B5A8
:102F1000044600251348008800041449886040F2E4
:102F20004D40C8600D20FFF770FA05460DB12846E8
:102F300070BD0E48406920602846F9E708B50020BA
:102F400000906846FFF7E3FF08B1FF2008BD009836
:102F5000C0F34320FAE700006C0000207C2500202D
:102F6000F424002070000020E424002000800140B0
:102F700064250020000010801425002010B50424D2
:102F8000FFF7DCFF0446042C01D1002010BDFF2C0C
:102F900001D10220FAE70120F8E710B50024002053
:102FA000FEF710FC204610BD70B504460025002633
:102FB0000020FEF745FC00F0007010B10E252846F9
:102FC00070BD4020FC4908601020486040208860A7
:102FD0000020C8604FF4806008610846FEF712FCCC
:102FE0001020FFF712FA05460DB12846E8E7F3482E
:102FF00000880004F049086037204860402088605D
:103000000020C8604FF4806008610846FEF7FAFBB4
:103010003720FFF7FAF905460DB12846D0E74FF003
:10302000FF30E74908604020486060208860022047
:10303000C86000200861012048610846FEF70BFCCB
:103040000020DD4908600D20486040208860002095
:10305000C8604FF4806008610846FEF7D3FB0D207E
:10306000FFF7D3F905460DB12846A9E70EE04FF466
:103070000040FEF73EFC48B1002604E0FEF70DFCE0
:1030800044F82600761C082EF8D32034CD48406B37
:1030900040F22A6108400028E9D00820FEF729FC08
:1030A00028B10820FEF72FFC0425284688E70220D7
:1030B000FEF71FFC28B10220FEF725FC022528465A
:1030C0007EE72020FEF715FC28B12020FEF71BFC30
:1030D0000625284674E74FF40070FEF70AFC30B16D
:1030E0004FF40070FEF70FFC0725284668E703E061
:1030F000FEF7D3FB2060241D4FF40010FEF7F9FB10
:103100000028F5D140F2FF50FEF7FDFB284657E7B7
:1031100070B5044600260025AB48FFF745FF06467C
:103120000EB1304670BDA848007885092570A648C4
:103130000078C0F340156570A34885782802608048
:10314000A148C5786088284360809F480579280693
:1031500060609D484579606840EA054060609A4833
:103160008579606840EA052060609748C5796068A5
:10317000284360609448057A2572457A6572807AA2
:103180000509A5729048C57A2802A0818E48057B62
:10319000A0892843A0818C48407B8508A5738A4874
:1031A000407B00F00305E5733046BBE72DE9F041B5
:1031B00007460D46144600260020844908708449BD
:1031C0000860844908607F49C86283480068022813
:1031D00001D104026D0A78480460102076494860E5
:1031E000402088600020C8604FF480600861084675
:1031F000FEF708FB1020FFF708F9064616B1304627
:10320000BDE8F0814FF0FF306D490860084644602A
:10321000902088600220C860002008610120486179
:103220000846FEF718FB64480560112062494860B3
:10323000402088600020C8604FF480600861084624
:10324000FEF7E0FA1120FFF7E0F806460EB130462F
:10325000D6E701210802FEF7C5FA0120FEF7CFFAF2
:1032600021463846FFF77BF83046C9E72DE9F041A3
:1032700080460D4614461E4600270020534908701C
:103280005349086001205349086000204D49C86235
:1032900051480068022801D104026D0A46480460C2
:1032A000102045494860402088600020C8604FF4E5
:1032B000806008610846FEF7A5FA1020FFF7A5F820
:1032C000074617B13846BDE8F0814FF0FF303C4962
:1032D000086006FB04F04860902088600220C86007
:1032E00000200861012048610846FEF7B4FA324820
:1032F0000560122030494860402088600020C86086
:103300004FF4806008610846FEF77CFA1220FFF750
:103310007CF807460FB13846D5E701210802FEF7D1
:1033200061FA0120FEF76BFA06FB04F14046FFF755
:1033300016F83846C7E710B5002400BFFFF70AF8B3
:1033400030B92348006818B9204800780028F5D023
:103350001E48007810B11D48007810BD2046FCE7DB
:103360002DE9F04107460D46144600260020174976
:10337000087017490860174908601249C862164862
:103380000068022801D104026D0A0B480460102075
:1033900009494860402088600020C8604FF4806080
:1033A00008610846FEF72EFA1020FFF72EF80646B1
:1033B000A6B13046BDE8F0817C25002070000020D9
:1033C0009025002000800140042500207800002086
:1033D0007C000020740000206C000020F84805608C
:1033E0001820F7494860402088600020C8604FF4EA
:1033F000806008610846FEF705FA1820FFF705F817
:1034000006460EB13046D5E74FF0FF30ED49086073
:1034100008464460902088600020C8600861012050
:1034200048610846FEF717FA01210802FEF7DAF9AB
:1034300021463846FEF7BEFF0120FEF7E0F9304690
:10344000B8E72DE9F84380460E4617461C4600258E
:1034500000200090DC490870DC4908600120DC494C
:1034600008600020DB49C862DB480068022801D1FF
:103470000702760AD94800880004D149086037203D
:103480004860402088600020C8604FF48060086178
:103490000846FEF7B7F93720FEF7B7FF054615B126
:1034A0002846BDE8F883C64804601720C449486030
:1034B000402088600020C8604FF4806008610846A2
:1034C000FEF7A0F91720FEF7A0FF05460DB128462C
:1034D000E7E7BB4806601920B9494860402088608A
:1034E0000020C8604FF4806008610846FEF78AF942
:1034F0001920FEF78AFF05460DB12846D1E74FF0A7
:10350000FF30B049086004FB07F0486090208860F5
:103510000020C8600861012048610846FEF79BF959
:1035200001210802FEF75EF90120FEF768F904FBAD
:1035300007F14046FEF73EFF2846B2E710B50024EB
:1035400000BFFEF707FF30B9A048006818B99E48D1
:1035500000780028F5D09C48007810B19A4800788F
:1035600010BD40F2FF50FEF7CEF92046F8E799482B
:10357000406B00F4405008B1012070470020FCE788
:1035800010B5002400209349886040F24C40C86088
:103590000C20FEF73AFF0446204610BD7CB50446D9
:1035A00000250020019000908C4800880004844988
:1035B00008600D204860402088600020C8604FF4FB
:1035C000806008610846FEF71DF98248406B009054
:1035D00002E08048406B0090009800F04500002811
:1035E000F7D0009800F0040028B103250420FEF76E
:1035F0008AF928467CBD009800F0010028B1012519
:103600000120FEF780F92846F4E7FEF715F900904F
:1036100000980D2802D010252846EBE740F2FF5015
:10362000FEF771F90020FEF70BF901900198C0F345
:10363000432020706A490198084008B92846D9E714
:10364000019800F0004008B11C20D3E7019800F079
:10365000804008B10920CDE7019800F0005008B182
:103660000A20C7E7019800F0805008B10B20C1E79D
:10367000019800F0006008B10C20BBE7019800F051
:10368000806008B10D20B5E7019800F0807008B1A6
:103690000E20AFE7019800F4000008B10F20A9E761
:1036A000019800F4800008B11020A3E7019800F40D
:1036B000001008B111209DE7019800F4801008B1B6
:1036C000122097E7019800F4002008B1132091E739
:1036D000019800F4802008B114208BE7019800F4D1
:1036E000003008B1152085E7019800F4803008B15A
:1036F00016207FE7019800F4004008B1172079E711
:10370000019800F4804008B1182073E7019800F494
:10371000005008B119206DE7019800F0080008B1C9
:103720001A2067E7284665E72DE9FC4105460E4665
:10373000002400270020019000902A4840682021A2
:1037400001EA105018B925242046BDE8FC81214823
:103750004068C0B2801C2449B1FBF0F00190002009
:10376000FEF76EF800F0007010B10E242046ECE772
:1037700019480068022801D16D0A760A16480068C7
:1037800038B115480068012803D0134800680228A2
:1037900042D10B48056020200949486040208860DC
:1037A0000020C8604FF4806008610846FEF72AF8E0
:1037B0002020FEF72AFE0446C4B12046C5E70000DB
:1037C0007C25002090250020780000207C0000202F
:1037D00074000020008001406C0000207000002078
:1037E00008E0FFFDE4240020C0D401003848066052
:1037F000212037494860402088600020C8604FF48D
:10380000806008610846FDF7FDFF2120FEF7FDFD01
:1038100004460CB1204698E700202D490860262078
:103820004860402088600020C8604FF480600861D4
:103830000846FDF7E7FF2620FEF7E7FD04460CB13A
:10384000204682E7002700E07F1C01988742FBD3D7
:103850006846FFF7A3FE044603E06846FFF79EFEB6
:1038600004463CB99DF800000728F6D09DF80000FA
:103870000628F2D0204668E710B5164800680128EF
:103880000BD100201449886040F24C40C8600C20E5
:10389000FEF7BBFD1149087002E000200F490870D7
:1038A0004FF48070FEF73CF800214FF48070FDF774
:1038B00099FF01200A4908600848007810BD0146B8
:1038C000002002E04910421CD0B20129FAD1704711
:1038D0007C2500207400002000800140780000203A
:1038E0007C00002008B501210920FDF7D9FE012147
:1038F0004FF4EA10FDF7E9FC4FF40070ADF800005A
:1039000018208DF8030003208DF802006946554801
:10391000FDF70AFC4FF48070ADF8000048208DF8E8
:10392000030003208DF8020069464E48FDF7FCFBBA
:1039300008BD08B54FF4C060FCF706FD14208DF8F3
:10394000000000208DF801008DF8020001208DF8A4
:1039500003006846FCF7FDFC08BD0EB501214806D2
:10396000FDF7ABFE4048FCF75DFD6846FCF77EFEC8
:1039700000208DF8060001208DF807008DF8080062
:1039800000208DF809008DF80A008DF80B008DF8E5
:10399000020001208DF8030004208DF804000220AD
:1039A0008DF805000420ADF8000069462E48FCF7AC
:1039B00052FD0EBD1FB500208DF80A008DF80B00DA
:1039C00001208DF80C000020ADF8000049F6A4009D
:1039D000ADF802004FF6FF70ADF80400ADF8060038
:1039E0000020ADF8080001208DF80D006846FCF7B6
:1039F000BCFD012202211C48FDF7B6F81FBD10B521
:103A0000FFF770FFFFF795FFFFF7A7FFFFF7D2FF64
:103A100010BD002100220260426002728272C274F4
:103A200000BF05E0002300F10B0253544A1CD1B241
:103A30000829F7DB704710B50A46002141F214331C
:103A4000436004230372002343720823837200BF80
:103A500005E0545C00F10B035C544B1CD9B20829FF
:103A6000F7DB10BD000C014000640040014601205E
:103A700011B1012904D102E020F0010002E001E0CF
:103A8000012000BF00BF704770B50446012514B186
:103A9000012C09D107E0FFF705FA10B925F001055F
:103AA00000E0012502E001E0012500BF00BF28463B
:103AB00070BD2DE9F047ADF5007D06460C46154674
:103AC0001F464FF0040A4FF0000816B1012E43D1F3
:103AD00041E004F0030000B34FF0000913E02A4670
:103AE0006D1C012369460020FFF7E3FF8146B9F111
:103AF000000F00D00BE04FF400726946204603F03F
:103B000033F904F50074381EA7F10107E7D100BFAF
:103B100048460DF5007DBDE8F0874FF40070A5FB29
:103B200000123B4602462046FFF7A0FB8046B8F154
:103B3000000F07D1FFF7FFFB804600BFFFF71EFA1B
:103B40000028FBD1B8F1000F02D04FF0040A01E0C9
:103B50004FF0000A03E002E04FF0040A00BF00BF8C
:103B60005046D6E72DE9F047ADF5007D07460C46F7
:103B700015461E464FF0040A4FF0000826B90420EF
:103B80000DF5007DBDE8F08717B1012F40D13EE073
:103B900004F00300E8B14FF0000913E04FF40072A5
:103BA0002146684603F0E0F82A466D1C0123694669
:103BB0000020FFF7D7FF8146B9F1000F00D005E0E4
:103BC00004F50074301EA6F10106E7D100BF484697
:103BD000D6E74FF40070A5FB00123346024620469C
:103BE000FFF72FFC8046B8F1000F07D1FFF7A6FCC6
:103BF000804600BFFFF7C2F90028FBD1B8F1000FE3
:103C000002D04FF0040A01E04FF0000A03E002E0A6
:103C10004FF0040A00BF00BF5046B1E730B503467D
:103C2000042013B1012B1CD11AE0A9B101290BD03A
:103C3000022902D0032910D103E04FF4007414804C
:103C40000BE00124146008E0094C646C084DAD6C75
:103C5000B4FBF5F4146000E000BF00BF002002E0F8
:103C600001E0042000BF00BF30BD024870470000E3
:103C7000142500200000214670B503460C4603E0E1
:103C800014F8015B03F8015B151EA2F10102F7D1E4
:103C900070BD30B5034601E003F8011B141EA2F10C
:103CA0000102F9D130BDF0B503461C460D46002097
:103CB00000BF161EA2F1010207D014F8017B15F80F
:103CC00001CBA7EB0C06301EF3D0F0BD024600E09E
:103CD000521C107810B110788842F9D110787047D2
:103CE0002DE9F041044600272079F8B1E56A6078B3
:103CF00001232A4604F13001FFF734FF08B1012700
:103D000014E000202071206A281AA16988420DD28F
:103D1000E67809E0A0690544607801232A4604F1A9
:103D20003001FFF71FFF761E022EF3D23846BDE8A2
:103D3000F08170B504460D460026E06AA84210D016
:103D40002046FFF7CDFF06465EB9607801232A467C
:103D500004F13001FFF7ADFE10B14FF0FF35012641
:103D6000E562304670BD70B504462046FFF7B8FFE7
:103D70000546002D59D1207803284FD160790128BC
:103D80004CD16289002104F13000FFF782FF5521F8
:103D900084F82E12AA2184F82F12522084F83000C1
:103DA000522131200155612132200155412133201A
:103DB0000155722184F8141284F81512412184F8F7
:103DC0001612612184F81712217C84F81812208AB7
:103DD000010A84F819122069010C84F81A1220696A
:103DE000010E84F81B12217B84F81C12A089010AA1
:103DF00084F81D12E068010C84F81E12E068010EC0
:103E000084F81F12E069401CE0626078012304F12D
:103E10003001E26AFFF7A6FE0020607160780022A0
:103E20001146FFF7FBFE00B10125284670BD024692
:103E3000891E5069801E884201D8002070479378FF
:103E4000906A01FB0300F9E72DE9F05F04460D4697
:103E5000022D02D36069A84202D84FF001098FE019
:103E60004FF0FF392078012804D002283CD00328E5
:103E70007ED157E02F4607EB57076089B7FBF0F07C
:103E8000216A00EB010A51462046FFF752FF00B1BC
:103E900075E038467F1C6189B0FBF1F201FB12012D
:103EA00004F1300010F801806089B7FBF0F0216A5E
:103EB00000EB010A51462046FFF73BFF00B15EE0F0
:103EC0006089B7FBF0F100FB117104F13000405C38
:103ED00048EA002805F0010010B14FEA181001E08F
:103EE000C8F30B0081464AE0B4F80AA00AEBDA7086
:103EF0004010B5FBF0F0216A00EB010B594620465B
:103F0000FFF717FF00B13AE068006189B0FBF1F2FA
:103F100001FB120104F130000E183078717840EA8C
:103F200001292CE0B4F80AA04FEAEA700AEB90707D
:103F30008010B5FBF0F0216A00EB010B59462046DA
:103F4000FFF7F7FE00B11AE0A8006189B0FBF1F2BB
:103F500001FB120104F130000E18F0780006B17870
:103F600040EA0140717840EA01203178084300E0DE
:103F700002E020F0704902E04FF0010900BF00BFED
:103F80004846BDE8F09F2DE9F05F04460E4617460F
:103F9000022E02D36069B04202D84FF00208B3E0AB
:103FA0002078012804D0022852D0032872D172E070
:103FB000B14609EB59096089B9FBF0F0216A00EBC1
:103FC000010A51462046FFF7B4FE8046B8F1000FC3
:103FD00000D098E0484609F101096189B0FBF1F28F
:103FE00001FB120104F130000D1806F0010020B1B0
:103FF000F9B2287861F31F1000E0384628700120DC
:1040000020716089B9FBF0F0216A00EB010A51468A
:104010002046FFF78EFE8046B8F1000F00D072E018
:104020006089B9FBF0F100FB119104F130000D182B
:1040300006F0010010B1C7F3071005E0287800F082
:10404000F000C7F3032108432870012020715AE0D3
:10405000B4F80AA00AEBDA704010B6FBF0F0216A5F
:1040600000EB010B59462046FFF763FE8046B8F18E
:10407000000F00D047E070006189B0FBF1F201FB56
:10408000120104F130000D182F70380A68700120F9
:10409000207138E034E0B4F80AA04FEAEA700AEB85
:1040A00090708010B6FBF0F0216A00EB010B5946CE
:1040B0002046FFF73EFE8046B8F1000F00D022E018
:1040C000B0006189B0FBF1F201FB120104F1300094
:1040D0000D18E8780006A97840EA0140697840EABE
:1040E00001202978084300F0704007432F70380AF8
:1040F0006870380CA870380EE8700120207102E05A
:104100004FF0020800BF00BF4046BDE8F09F2DE918
:10411000F04104460E46022E02D36069B04201D837
:10412000022727E0002721E031462046FFF78CFEDA
:10413000054605B91DE0012D01D1022719E0681CD3
:1041400008B9012715E0002231462046FFF71BFF82
:10415000074607B10DE02069401C30B12069401CC2
:104160002061607940F0010060712E466069B042C4
:10417000DAD800BF3846BDE8F0812DE9F0470446A3
:104180008946B9F1000F06D1E76817B16069B842F6
:1041900015D8012713E049462046FFF755FE06468D
:1041A000022E02D20120BDE8F087701C08B930460B
:1041B000F9E76069B04201D93046F4E74F463D4621
:1041C00000BF6D1C6069A84204D80225BD4201D918
:1041D0000020E8E729462046FFF736FE064606B9E6
:1041E00009E0701C08B1012E01D13046DBE7BD4269
:1041F000E7D10020D7E700BF6FF070422946204684
:10420000FFF7C1FE8046B8F1000F08D1B9F1000FE9
:1042100005D02A4649462046FFF7B5FE8046B8F14C
:10422000000F0BD1E5602069401C78B12069401E69
:104230002061607940F00100607107E0B8F1010F82
:1042400002D14FF0FF3000E0012005462846AAE7E2
:104250002DE9F04104460E46E680A568012D03D005
:1042600020684069A84202D80220BDE8F0812DB93B
:1042700020680078032801D12068456A45B9206884
:104280000089B04201D80220EFE72068476A24E0A5
:1042900021684889C11700EBD161491122689278E1
:1042A00001FB02F812E029462068FFF7CDFD054624
:1042B000681C08B90120D8E7022D03D320684069A3
:1042C000A84201D80220D0E7A6EB08064645EAD26C
:1042D00029462068FFF7ABFD0746E5600FB90220CD
:1042E000C3E721684889C11700EBD1614911B6FBCA
:1042F000F1F13944216121684889C11700EBD1618E
:104300004911B6FBF1F201FB12612268303202EB77
:10431000411161610020A8E72DE9F041044688467B
:10432000E088461CB0B208B1206910B90420BDE88D
:10433000F08121684889C11700EBD1614911B6FBB2
:10434000F1F201FB1261002971D12069401C20614A
:10435000E06828B920680089B04268D80420E6E700
:1043600021684889C11700EBD1614911B6FBF1F111
:1043700022689278521E1140002958D1E1682068C5
:10438000FFF762FD0546012D01D80220CFE7681C2A
:1043900008B90120CBE720684069A84241D8B8F1AC
:1043A000000F01D10420C2E7E1682068FFF7E5FEB5
:1043B00005460DB90720BAE7012D01D10220B6E765
:1043C000681C08B90120B2E72068FFF789FC08B132
:1043D0000120ACE721684A8901F130000021FFF794
:1043E00058FC29462068FFF722FD2168C862002793
:1043F0000EE00120216808712068FFF771FC08B108
:10440000012094E72068C06A401C2168C8627F1CB4
:1044100020688078B842ECD82068C06AC01B216848
:10442000C862E56029462068FFF701FD2061E6804B
:1044300021684889C11700EBD1614911B6FBF1F23F
:1044400001FB12612268303202EB411161610020F0
:104450006DE72DE9F04104460E4600212046FFF7A6
:10446000F7FE0546EDB9002700BF21692068FFF778
:1044700060FC054605B113E060690078E52802D0CC
:104480006069007820B9781C0746B04201D107E086
:10449000002701212046FFF73FFF0546002DE4D00D
:1044A00000BF042D00D107252846BDE8F08110B5D6
:1044B00002468C7ECB7E44EA03201378032B05D181
:1044C0000C7D4B7D44EA032340EA034010BD817616
:1044D0000B0AC3760A0C02750B0E437570472DE963
:1044E000F04780460C46A17EE07E41EA002010B1F4
:1044F0000020BDE8F087207800F03F00401E00EB70
:10450000800101EBC0064FF00109002524E0F848C6
:10451000405D205CF649495D2144497840EA012725
:10452000B9F1000F11D0FF2E0BD2384602F0EAFB92
:1045300082463146761C38F8110002F0E3FB8245D2
:1045400001D00020D5E7B94605E04FF6FF7087425D
:1045500001D00020CDE76D1C0D2DD8D3207800F0C0
:10456000400038B1B9F1000F04D038F8160008B196
:104570000020BEE70120BCE7F0B504468F7EC87E70
:1045800047EA002008B10020F0BD087800F03F00A5
:10459000401E00EB800707EBC002012600231AE053
:1045A000D348C05C085CD24FFF5C0F447F7840EA80
:1045B00007254EB1FF2A01D30020E5E72E4610461D
:1045C000521C24F8105005E04FF6FF70854201D0D0
:1045D0000020D9E75B1C0D2BE2D3087800F04000E7
:1045E00030B1FF2A01D30020CEE7002024F81200CA
:1045F0000120C9E7F0B504461D464D730F27CF7261
:1046000000270F738F76BC4681F81BC0571E07EB3F
:10461000870C0CEBC706002738463B4600BF4FF619
:10462000FF77B84203D03746761C34F81700DFF81E
:10463000C0C21CF803C001F80C000712DFF8B0C2BA
:104640001CF803C08C448CF8017008B94FF6FF7059
:104650005F1C3B460D2FE2D34FF6FF77B84202D0E6
:1046600034F816700FB942F040020A70F0BD2DE91F
:10467000FF4F83B0074691461E460B2238460499E9
:10468000FFF7FAFA052E19D9B04612E039F802BB45
:1046900000250CE0584668F35F0080464FEA6B0B3C
:1046A00008F4803010B1934888EA00086D1C102D82
:1046B000F0D3B9F800000028E8D14646072500BF2E
:1046C00006F00F0000F1300ABAF1390F03DD0AF1EC
:1046D000070000F0FF0A28466D1E01A901F800A09E
:1046E0003609002EECD17E20485500240BE0385DC1
:1046F000812807DB385DFE2804DC681EA04200D15B
:1047000006E0641C641CAC4202D2385D2028EED165
:1047100000BF00BF082D04D228466D1C01A9095C0A
:1047200000E020212046641C3954082CF2D307B045
:10473000BDE8F08F30B5014600200B2200BF4310CA
:1047400003EBC01411F8015B6319D8B2531E1A1E93
:10475000F5D130BD2DE9F047044600212046FFF792
:1047600077FD074617B13846BDE8F0874FF0FF09DF
:10477000CA464FF6FF70208400BF21692068FFF70A
:10478000D8FA074607B157E065692E780EB90427B5
:1047900052E0E87A00F03F08E52E05D008F0080066
:1047A00040B1B8F10F0F05D04FF0FF094FF6FF7081
:1047B00020843AE0B8F10F0F1CD1E06978B306F01D
:1047C000400030B195F80DA026F04006B146E088D3
:1047D00020844E450AD1687B504507D12946E069BF
:1047E000FFF77DFE10B1A9F1010000E0FF2000F00D
:1047F000FF091AE0B9F1000F05D12846FFF79AFF2B
:10480000504500D118E0A069C07A00F0010038B925
:104810000B222846A169FFF746FA08B90CE004E02C
:104820004FF0FF094FF6FF70208400212046FFF76C
:1048300073FD0746002FA0D000BF384694E72DE94E
:10484000F05F04468A464FF0FF09CB46042753E049
:1048500021692068FFF76DFA074607B14FE06669E6
:1048600035780DB904274AE0F07A00F03F08E52DCD
:104870000AD02E2D08D028F02000082801D10120D0
:1048800000E00020504502D04FF0FF0929E0B8F1C8
:104890000F0F1AD105F0400030B196F80DB025F099
:1048A0004005A946E08820844D450AD1707B5845D3
:1048B00007D13146E069FFF75FFE10B1A9F10100B1
:1048C00000E0FF2000F0FF090BE0B9F1000F04D178
:1048D0003046FFF72FFF584502D04FF6FF70208477
:1048E0000DE000212046FFF717FD074627B106E03F
:1048F000D46F00082110010020690028A8D100BF52
:104900000FB1002020613846BDE8F09F2DE9FE4F31
:104910000446D4F81880D4F81C900C22414668460E
:10492000FFF7AAF900BF9DF80B0000F0010020B3CB
:10493000002088F80B00E06101260CE033464A466F
:1049400069464046FFF793FE2046FFF703FF054602
:1049500005B102E0761C642EF0D300BF642E02D1B4
:104960000720BDE8FE8F042D01D02846F9E79DF809
:104970000B0088F80B00C4F81C909DF80B0000F0A9
:10498000020060B1002600E0761C39F8160000280D
:10499000FAD106F119000D21B0FBF1F700E0012773
:1049A00039462046FFF755FD054645BB781E071ED4
:1049B00025D0E088C11B2046FFF74AFC0546F5B923
:1049C000A069FFF7B7FE824600BF21692068FFF7A4
:1049D000B0F9054605B111E0FAB253466169E069E4
:1049E000FFF708FE01202168087100212046FFF72B
:1049F00093FC054615B9781E071EE6D100BFC5B960
:104A000021692068FFF795F9054695B92022002114
:104A10006069FFF73EF90B22D4E90501FFF72CF995
:104A2000A069C07A00F0180061690873012021684C
:104A30000871284695E770B50446E688208C4FF645
:104A4000FF72904201D1304600E0208C01462046A2
:104A5000FFF7FEFB05460DBB00BF21692068FFF78D
:104A600068F9054605B115E0202200216069FFF7CD
:104A700010F9E52061690870012021680871E0885B
:104A8000B04200D306E000212046FFF745FC054672
:104A9000002DE2D000BF042D00D10225284670BDB4
:104AA0002DE9F05F80460D4605F10907D8F81000A2
:104AB000002843D0D8F81440002626E03046761C63
:104AC00014F80090B9F1200F00D11EE0B9F1050FE4
:104AD00001D14FF0E509092E02D12E2007F8010B74
:104AE000B9F1410F0EDBB9F15A0F0BDC207B092E17
:104AF00001D3102100E00821084018B109F120007D
:104B000000F0FF0907F8019B00BF0B2ED6D3E07A17
:104B10002872E07F0106A07F41EA0041607F41EA00
:104B20000020217F08432860217E607E41EA00202A
:104B3000A880A17DE07D41EA0020E8800020387057
:104B4000A86998B30026AF69D8F8100060B3E86987
:104B500050B3B8F820004FF6FF71884224D0D8F83F
:104B60001CB01BE00021504602F092F88246BAF1D8
:104B7000000F01D1002616E0BAF1FF0F04DD4FEA65
:104B80002A223046761C3A54E869401EB04201D8C9
:104B9000002608E03046761C07F800A03BF8021B10
:104BA000B1F1000ADED100BF0020B855BDE8F09F8A
:104BB0002DE9F34F83B0814604980068019002E02C
:104BC0000198401C0190019800782F28F8D0019896
:104BD00000785C28F4D0D9F81CA000252F4600BF2F
:104BE00038467F1C01990C5C202C03DB2F2C01D054
:104BF0005C2C00D132E0FF2D03D3062005B0BDE8C8
:104C0000F08FE4B2812C13DBE0B2FE2810DC3846D2
:104C10007F1C01990E5C06EB042084B2402E01DB60
:104C20007E2E05DD802E01DBFE2E01DD0620E5E770
:104C30000121204602F02CF804460CB90620DDE7DD
:104C4000802C06DA2146F8A0FFF740F808B10620CC
:104C5000D4E728466D1C2AF81040C1E700BF019830
:104C6000C11904980160202C01DA042000E0002022
:104C7000804608E0681E3AF81040202C02D02E2C06
:104C800000D002E06D1E002DF4D100BF0DB906204A
:104C9000B4E700202AF815000B222021D9F81800CB
:104CA000FEF7F7FF002700E07F1C3AF817002028E6
:104CB000FAD03AF817002E28F6D00FB148F00308C2
:104CC00000E06D1E25B1681E3AF810002E28F8D1BC
:104CD0000020064602904FF0080B00BF38467F1CAC
:104CE0003AF8104004B963E0202C03D02E2C04D1F4
:104CF000AF4202D048F00308F0E70298584501D2CD
:104D0000AF4214D1BBF10B0F02D148F003084FE0C2
:104D1000AF4201D048F00308AF4200D948E02F4627
:104D2000082002904FF00B0BB006060ED6E7802C41
:104D300009DB204601F0E6FF0021009001F0A8FF0A
:104D4000044648F00208FF2C11DDABF10100029986
:104D5000884204D848F00308CDF808B0BEE7221214
:104D6000D9F818300298411C02911A5419E024B164
:104D70002146B0A0FEF7AAFF18B15F2448F003084F
:104D80000FE0412C04DB5A2C02DC46F0020608E05E
:104D9000612C06DB7A2C04DC46F00106A4F120002D
:104DA00084B2D9F818300298411C02911C5495E73E
:104DB00000BFD9F818000078E52803D10520D9F8FC
:104DC00018100870BBF1080F01D1B006060E06F0EE
:104DD0000C000C2803D006F00300032801D148F092
:104DE000020808F0020058B906F00300012801D1BA
:104DF00048F0100806F00C00042801D148F008081B
:104E0000D9F8180080F80B800020F7E62DE9F3416F
:104E10000446019800782F2803D0019800785C2878
:104E200002D10198401C01900020A06001980078F8
:104E3000202807D200212046FFF70AFA0546002065
:104E4000606128E000BF01A92046FFF7B1FE0546DA
:104E500005B11FE02046FFF77DFC0546A069C67A34
:104E60003DB1042D04D100BF06F0040000B90525B2
:104E700010E006F0040000B10CE06769F87A00F079
:104E8000100008B9052505E039462068FFF70FFB3B
:104E9000A060D8E700BF2846BDE8FC8170B5024697
:104EA0004FF0FF301568E5B1116800E0491C0D783E
:104EB000202D02D30D783A2DF8D10D783A2D0FD14F
:104EC000146814F8015BA5F130030A2B07D28C4259
:104ED00005D1022B03D218464D1C2946156070BD22
:104EE000002000BFFBE770B504460D46002020718E
:104EF000401EE06229462046FEF71BFF08B1032052
:104F000070BD94F82E1294F82F0241EA00204AF660
:104F10005521884201D00220F2E794F86900010689
:104F200094F8680041EA004194F8670041EA0020E3
:104F300094F86610084320F07F404049884201D130
:104F40000020DDE794F88500010694F8840041EA2A
:104F5000004194F8830041EA002094F8821008434D
:104F600020F07F403549884201D10020C8E7012068
:104F7000C6E72DE9F74F8AB000210A9801600B9827
:104F8000FFF78CFF09900998002803DA0B200DB079
:104F9000BDE8F08F2A49099851F820400CB90C203F
:104FA000F5E70A980460207878B16078FEF75EFD36
:104FB000814609F0010040B90C9820B109F00400C5
:104FC00008B10A20E3E70020E1E7002020700998FB
:104FD00060706078FEF758FD814609F0010008B165
:104FE0000320D4E70C9820B109F0040008B10A208E
:104FF000CDE7607804F10A020221FEF70FFE38B90E
:105000006089B0F5007F03DB6089B0F5805F01DD6A
:105010000120BCE7002739462046FFF764FF05461C
:10502000012D0FD0D5BB41E0222A3A3C3E3F7C7F88
:10503000000000002B2C3B3D5B5D0000464154000E
:105040008000002000261AE004F5F77000EB061837
:1050500098F8040070B198F80B00010698F80A005F
:1050600041EA004198F8090041EA002098F8081048
:10507000084300E0002002A941F82600761C042E17
:10508000E2D3002606B1761E00BF02A850F82670B3
:105090002FB139462046FFF726FF01E006E0022047
:1050A00005461DB1701C06460428EED3032D01D120
:1050B00001206CE70DB10D2069E73B20015D94F8FC
:1050C0003C0041EA00206189884201D00D205EE762
:1050D0004620015D94F8470041EA002ABAF1000F2A
:1050E0000ED194F85700010694F8560041EA0041A9
:1050F00094F8550041EA002094F8541040EA010A5F
:10510000C4F818A04020005DE070E078012804D0C9
:10511000E078022801D00D2039E7E0780AFB00FA98
:105120003D20005DA070A07818B1A078411E084015
:1051300008B10D202BE74120015D94F8420041EABF
:10514000002020816089C11700EBD16149112289BB
:1051500092FBF1F301FB132109B10D2017E7432066
:10516000015D94F8440041EA00200890089870B965
:1051700094F85300010694F8520041EA004194F873
:10518000510041EA002094F85010084308903E2056
:10519000015D94F83F0041EA00200190019808B9B0
:1051A0000D20F4E66089C11700EBD1614911228915
:1051B00092FBF1F20199514411440791DDE9071086
:1051C000884201D20D20E2E6DDE90710401AA178FD
:1051D000B0FBF1FBBBF1000F01D10D20D7E601259B
:1051E00040F6F670834500D302254FF6F6708345EE
:1051F00000D303250BF102006061E7610198384498
:10520000206207983844A062032D16D1208908B186
:105210000D20BCE694F85F00010694F85E0041EAB8
:10522000004194F85D0041EA002094F85C100843C6
:10523000606260698000069014E0208908B90D2042
:10524000A5E6206A50446062022D02D160694000E8
:1052500007E0207D00F00100616901EB410100EBF6
:10526000510006906089401E069908446189B0FB90
:10527000F1F0A169884201D90D2088E64FF0FF3096
:105280002061E06080206071032D5AD194F8601095
:1052900094F8610041EA0020012852D1791C20468F
:1052A000FEF747FDE8BB0020607194F82E1294F8D9
:1052B0002F0241EA00204AF65521884241D133208D
:1052C000005D01063220005D41EA00413120005DB1
:1052D00041EA002094F830100843F549884230D163
:1052E00094F81702010694F8160241EA004194F876
:1052F000150241EA002094F814120843ED4988424F
:105300001FD194F81B02010694F81A0241EA0041E9
:1053100094F8190241EA002094F818120843206119
:1053200000E00EE094F81F02010694F81E0241EA24
:10533000004194F81D0241EA002094F81C12084331
:10534000E0602570DC480088401C80B2DA490880A3
:10535000E08000201BE670B505462C4684B120682D
:1053600070B12068007858B12068C088A188884250
:1053700006D121684878FEF779FB00F0010008B1FA
:10538000092070BD0020FCE7F7B582B016460398EF
:10539000019001A8FFF782FD0546002D02DA0B20DF
:1053A00005B0F0BDC54850F825400CB10020207074
:1053B000029810B1002002990870C049029841F883
:1053C0002500029808B1012E01D00020E8E7002254
:1053D00003A902A8FFF7CDFD07463846E0E72DE90F
:1053E000F743ADF50C7D0546164625B909200DF5A8
:1053F0000F7DBDE8F0830020286006F01F0626F030
:1054000001028DA983A8FFF7B4FD0746002F74D1D0
:1054100080A88990CDF828D283A88D99FFF7F6FC53
:105420000746889C0FB904B9062706F01C0000281F
:105430005CD04FB1042F03D183A8FFF767FA07466A
:1054400046F00806889C09E0E07A00F0110008B1F7
:10545000072703E006F0040000B10827002F55D10C
:1054600006F00800002851D0FEF7FFFB804684F8C4
:105470000E804FEA1821E1734FEA184121744FEA78
:105480001861617484F816804FEA1821E1754FEABB
:10549000184121764FEA186161760020E07220778A
:1054A00000216177A177E17721468398FEF7FFFF1E
:1054B000814600212046FFF70AF8012083990871F0
:1054C000B9F1000F22D08398D0F82C8049468398F8
:1054D000FEF71DFE0746CFB9A9F101008399C86008
:1054E00041468398FEF725FC07460FE077B9E07A3E
:1054F00000F0100010B1042708E02DE006F00200D3
:1055000020B1E07A00F0010000B1072747B906F0AA
:10551000080008B146F020068398C06AE8612C6252
:10552000D7B9AE710020E87121468398FEF7BFFF1E
:105530002861E07F0106A07F41EA0041607F41EAE7
:105540000020217F0843E8600020A860A8618398BC
:1055500028602868C088A880384648E72DE9FF4FB2
:1055600085B0044615469A46DDF818B00020CAF802
:1055700000002046FFF7EFFE0490049818B104984D
:1055800009B0BDE8F08FE07908B1E079F8E7A079DB
:1055900000F0010008B90720F2E7D4E90210401A30
:1055A00002900298854200D9029DC2E02168498993
:1055B000A068B0FBF1F201FB1200002877D121684E
:1055C0004989A068B0FBF1F021688978491E08403C
:1055D00000F0FF09B9F1000F17D1A06810B92069D8
:1055E000039004E061692068FEF72EFC03900398A5
:1055F000022802D20220E071C2E70398401C10B9D1
:105600000120E071BCE70398606161692068FEF7E2
:105610000EFC064616B90220E071B1E74E44206840
:105620004089B5FBF0F8B8F1000F2DD009EB080068
:1056300021688978884203D920688078A0EB09081E
:1056400021684878434632465946FEF732FA10B18F
:105650000120E07194E7A07900F0400078B1A069E2
:10566000801B40450BD2A169891B23685B8901FB24
:1056700003B021684A8904F12401FEF7FDFA20688D
:10568000408900FB08F74AE0A069B04228D0A07921
:1056900000F04000C0B121684878012304F12401E2
:1056A000A269FEF75FFA58B10120E07168E718E0DF
:1056B00052526141727241618800002080000020D6
:1056C000A07920F04000A07121684878012332467B
:1056D00004F12401FEF7EDF910B10120E0714FE76C
:1056E000A66121684989A068B0FBF1F201FB1200B4
:1056F000216849890F1AAF4200D92F46216849898C
:10570000A068B0FBF1F201FB120104F1240008448F
:105710003A46014601905846FEF7AEFA00BFBB4438
:10572000A0683844A060DAF800003844CAF80000E5
:10573000ED1B002D7FF43AAF002021E72DE9FF4F4C
:1057400083B0044615469B46049801900020CBF890
:1057500000002046FFF7FFFD0290029818B1029862
:1057600007B0BDE8F08FE07908B1E079F8E7A079FB
:1057700000F0020008B90720F2E7A0682844A168F9
:10578000884200D20025CFE021684989A068B0FB9B
:10579000F1F201FB120000287ED121684989A0683E
:1057A000B0FBF1F021688978491E084000F0FF0A3B
:1057B000BAF1000F1ED1A06838B9276957B9002186
:1057C0002068FEF7DAFC074604E061692068FEF70E
:1057D000D4FC074607B9AAE0012F02D10220E071EC
:1057E000BEE7781C10B90120E071B9E76761206954
:1057F00000B92761A07900F0400078B121684878AD
:10580000012304F12401A269FEF7ACF910B10120D3
:10581000E071A5E7A07920F04000A07161692068DF
:10582000FEF705FB064616B90220E07198E75644DC
:1058300020684089B5FBF0F9B9F1000F31D00AEBCF
:10584000090021688978884203D920688078A0EB14
:105850000A09216848784B4632460199FEF782F9D9
:1058600010B10120E0717BE7A069801B484511D28F
:10587000A069831B2068B0F80AC0019803FB0C01E3
:105880002068428904F12400FEF7F6F9A07920F09F
:105890004000A071206800E017E0408900FB09F893
:1058A00035E0A069B0420FD0D4E9020188420BD2A2
:1058B000216848780123324604F12401FEF7F9F803
:1058C00010B10120E0714BE7A66121684989A06809
:1058D000B0FBF1F201FB120021684989A1EB00083D
:1058E000A84500D9A84621684989A068B0FBF1F213
:1058F00001FB120104F12400084442460090019982
:10590000FEF7BAF9A07940F04000A07100BF0198FD
:1059100040440190A0684044A060DBF8000040448F
:10592000CBF80000A5EB0805002D7FF42DAF00BFDC
:10593000D4E90201884201D9A068E060A07940F072
:105940002000A07100200BE72DE9F041044620461D
:10595000FFF701FD0746002F4CD1A07900F0200091
:10596000002847D0A07900F0400078B1216848783D
:10597000012304F12401A269FEF7F4F810B101201B
:10598000BDE8F081A07920F04000A071E1692068B5
:10599000FEF7CFF90746002F2CD1256AE87A40F0B0
:1059A0002000E872207B2877A089010A6977E068E7
:1059B000010CA977E068010EE97728462169FEF716
:1059C00086FDFEF752F90646AE75310AE975310CCF
:1059D0002976310E69760020A8740021E974A07937
:1059E00020F02000A0710120216808712068FEF7D6
:1059F000BAF907463846C3E770B505462846FFF7AB
:105A0000A3FF044634B92846FFF7A5FC04460CB9A9
:105A100000202860204670BD2DE9F04704460E4660
:105A20002046FFF798FC8246BAF1000F02D050469C
:105A3000BDE8F087E07908B1E079F9E7E068B042C5
:105A400004D2A07900F0020000B9E668D4F808900A
:105A50004FF00008C4F80880002E71D020688078CC
:105A60002168498900FB01F7B9F1000F11D0701EC0
:105A7000B0FBF7F1A9F10100B0FBF7F0814208D3C8
:105A8000A9F10100791E8843A060A068361A6569F3
:105A900012E025697DB900212068FEF76EFB0546FE
:105AA000012D02D10220E071C2E7681C10B901206B
:105AB000E071BDE725616561002D41D023E0A0794B
:105AC00000F0020038B129462068FEF756FB054673
:105AD00035B93E4619E029462068FEF7B5F9054676
