:020000040800F2
:100000000805002045010008951300089713000813
:100010009B1300089F130008A313000800000000B2
:10002000000000000000000000000000A71300080E
:10003000A913000800000000AB130008AD1300086E
:100040005F0100085F0100085F0100085F01000810
:100050005F0100085F0100085F0100085F01000800
:100060005F0100085F0100085F0100085F010008F0
:100070005F0100085F0100085F0100085F010008E0
:100080005F0100085F0100085F0100085F010008D0
:100090005F0100085F0100085F0100085F010008C0
:1000A0005F0100085F0100085F0100085F010008B0
:1000B0005F0100085F0100085F0100085F010008A0
:1000C0005F0100085F0100085F0100085F01000890
:1000D0005F010008871400085F0100085F01000845
:1000E0005F0100085F0100085F0100085F01000870
:1000F0005F0100085F0100085F0100085F01000860
:100100005F010008AF1300085F0100085F010008ED
:100110005F0100085F0100085F0100085F0100083F
:100120005F0100085F0100085F0100085F0100082F
:10013000DFF80CD002F0E6FC004800475513000839
:10014000080500200648804706480047FEE7FEE70E
:10015000FEE7FEE7FEE7FEE7FEE7FEE7FEE7FEE777
:1001600047020008310100080CB500200190009002
:100170006C48006840F480306A49086000BF6948F4
:10018000006800F4003000900198401C0190009835
:1001900018B90198B0F5A06FF1D16248006800F479
:1001A000003010B10120009001E000200090009884
:1001B000012843D15C48006840F010005A490860AB
:1001C0000846006820F0030008600846006840F018
:1001D0000200086053484068524948600846406839
:1001E00048600846406840F48060486008464068BF
:1001F00020F47C1048600846406840F4E8104860ED
:100200000846006840F08070086000BF45480068FC
:1002100000F000700028F9D04248406820F0030048
:10022000404948600846406840F00200486000BF0E
:100230003C48406800F00C000828F9D10CBD10B50E
:10024000FFF792FF10BD10B53648006840F001007E
:1002500034490860084640683449084031494860DC
:1002600008460068324908402E4908600846006880
:1002700020F4802008600846406820F4FE004860B2
:100280004FF41F008860FFF7DAFF4FF00060294944
:10029000086010BD10B5002100200022214B5B68D2
:1002A00003F00C0121B1042906D0082928D107E068
:1002B000214B224C236027E01F4B204C236023E07E
:1002C000184B5B6803F47010164B5B6803F48032C4
:1002D000022303EB904022B9194B4343174C236090
:1002E0000DE0104B5B6803F4003323B1144B434320
:1002F000124C236003E0104B4343104C236003E097
:100300000D4B0E4C236000BF00BF064B5B68C3F370
:1003100003130C4CE15C094B1B68CB40074C23607A
:1003200010BD000000100240002002400000FFF855
:10033000FFFFF6FE08ED00E000127A00000000204A
:1003400000093D000400002031490143314A116099
:10035000704770B5002100230F22C47804B32D4CE0
:10036000246804F4E064C4F5E064210AC1F10403E4
:10037000CA40447804FA03F1847814402143090107
:10038000254C0678A155047804F01F050124AC40E3
:1003900005786D11AD0005F1E025C5F8004109E0D3
:1003A000047804F01F050124AC401C4D067876113A
:1003B00045F8264070BD1A4A0A400243154B1B1FE0
:1003C0001A60704739B1134A121D12680243114B6B
:1003D0001B1D1A6006E00F4A121D126882430D4B66
:1003E0001B1D1A607047042808D14FF0E0210969ED
:1003F00041F004014FF0E022116107E04FF0E021ED
:10040000096921F004014FF0E022116170470000FA
:100410000000FA050CED00E000E400E080E100E0FF
:1004200080FFFF1F01684FF6FE721140016000213E
:10043000016041608160C1608D49884208D18C496A
:100440000839496841F00F01894A083A51608AE049
:1004500087491431884208D185490839496841F0F3
:10046000F001834A083A51607DE081492831884291
:1004700008D17F490839496841F470617C4A083ADB
:10048000516070E07A493C31884208D17849083996
:10049000496841F47041764A083A516063E0744912
:1004A0005031884208D172490839496841F47021B5
:1004B0006F4A083A516056E06D496431884208D16C
:1004C0006B490839496841F47001694A083A51603A
:1004D00049E067497831884208D165490839496857
:1004E00041F07061624A083A51603CE061498842DB
:1004F00006D1011F096841F00F01021F116032E0AF
:100500005C491431884208D15A49091F096841F0F1
:10051000F001584A121F116025E0564928318842DF
:1005200008D15449091F096841F47061514A121FEA
:10053000116018E04F493C31884208D14D49091FEC
:10054000096841F470414B4A121F11600BE04949A0
:100550005031884207D14749091F096841F4702189
:10056000444A121F1160704710B50022026847F616
:10057000F0739A430C6A8B6823430C6923434C69DC
:1005800023438C692343CC6923434C6A23438C6AFD
:1005900023431A430260CB6843600B6883604B6857
:1005A000C36010BD0021016041608160C1600161D4
:1005B00041618161C161016241628162704721B123
:1005C000026842F00102026004E002684FF6FE7326
:1005D0001A40026070471AB103680B43036002E0DF
:1005E00003688B4303607047416070470146486869
:1005F00080B2704701460020002201F080531BB1F9
:100600001C4B083B1A6802E0194B083B1A6802EAC7
:1006100001030BB1012000E00020704700F0805181
:1006200019B11449091F086002E0114908394860EE
:10063000704701460020002201F080531BB10D4B92
:10064000083B1A6802E00A4B083B1A6802EA0103F9
:100650000BB1012000E00020704700F0805119B17B
:100660000449091F086002E00149083948607047E1
:10067000080002400804024010B50446CC488442F9
:1006800008D10121042000F02DFB0021042000F0FE
:1006900029FB46E0C748844208D10121082000F028
:1006A00021FB0021082000F01DFB3AE0C2488442F3
:1006B00008D10121102000F015FB0021102000F0CE
:1006C00011FB2EE0BD48844208D10121202000F01A
:1006D00009FB0021202000F005FB22E0B8488442FD
:1006E00008D10121402000F0FDFA0021402000F057
:1006F000F9FA16E0B348844208D10121802000F0C5
:10070000F1FA0021802000F0EDFA0AE0AE488442C0
:1007100007D10121801500F0E5FA0021A01500F0B5
:10072000E1FA10BD10B50121084600F0DBFA002106
:10073000012000F0D7FA10BD2DE9F0410246002556
:100740000026002000230024002791F803C00CF0AD
:100750000F0591F803C00CF0100CBCF1000F03D092
:1007600091F802C04CEA050591F800C0BCF1000FF9
:1007700031D0146800202BE04FF0010C0CFA00F38C
:10078000B1F800C00CEA03069E4220D183004FF06E
:100790000F0C0CFA03F7BC4305FA03FC4CEA040403
:1007A00091F803C0BCF1280F06D14FF0010C0CFAF0
:1007B00000FCC2F814C00AE091F803C0BCF1480F75
:1007C00005D14FF0010C0CFA00FCC2F810C0401C1F
:1007D0000828D1D31460B1F800C0BCF1FF0F34DD9C
:1007E000546800202EE000F1080C4FF0010808FAD0
:1007F0000CF3B1F800C00CEA03069E4221D183003D
:100800004FF00F0C0CFA03F7BC4305FA03FC4CEA5B
:10081000040491F803C0BCF1280F05D100F1080CC5
:1008200008FA0CF8C2F8148091F803C0BCF1480F24
:1008300007D100F1080C4FF0010808FA0CF8C2F8D3
:100840001080401C0828CED35460BDE8F0814FF6DC
:10085000FF710180022181700421C170704702463E
:10086000002093680B400BB1012000E0002070478E
:100870000146886880B2704702460020D3680B406A
:100880000BB1012000E0002070470146C86880B22B
:10089000704701617047416170470AB1016100E032
:1008A00041617047C16070474FF480320A438261F2
:1008B0008161826182698269704702460020434BF0
:1008C00018684FF68073184040EA021008433F4B07
:1008D000186070473E49C8617047F0B50A4600236A
:1008E00000240021002500F00046B6F1004F02D19F
:1008F000364EF16901E0354E7168C0F3034583B2AD
:1009000000F44016B6F5401F08D121F070612F4E5B
:10091000766826F070662D4F7E6012E000F4801637
:10092000B6F5801F06D1032606FA05F4A14341F06F
:10093000706106E0460D360103FA06F6B14341F058
:10094000706122B1460D360103FA06F6314300F01C
:100950000046B6F1004F02D11C4EF16101E01B4E82
:100960007160F0BD30B500228B071C0F0F2303FA16
:1009700004F2164B08338C1053F824309343134C75
:1009800008348D1044F8253023468C1053F8243059
:100990008C07240F00FA04F423430C4C08348D1008
:1009A00044F8253030BD0A49DC310860704700004A
:1009B00000080140000C01400010014000140140FB
:1009C00000180140001C01400020014000000140CF
:1009D00000002042DF48006840F00100DD49086067
:1009E00008464068DC490840DA4948600846006823
:1009F000DA490840D74908600846006820F480209A
:100A000008600846406820F4FE0048604FF41F006C
:100A100088607047CF49096821F48031CD4A116060
:100A20001146096821F480211160B0F5803F03D0A0
:100A3000B0F5802F0ED106E0C649096841F4803137
:100A4000C44A116007E0C349096841F4A021C14AC2
:100A5000116000E000BF00BF704710B501460022E2
:100A6000002300204A11012A02D1BA4C236806E073
:100A7000022A02D1B74C236A01E0B64C636A01F046
:100A80001F02012494401C400CB1012000E0002012
:100A900010BD38B5002000900024002500BF312093
:100AA000FFF7DBFF05460098401C00900098B0F56A
:100AB000A06F01D0002DF2D03120FFF7CEFF08B19A
:100AC000012400E00024204638BD01460020A14A50
:100AD000106820F0F80040EAC10010607047A0499B
:100AE00008607047024600209A4B586820F47C103A
:100AF00042EA01031843974B5860704798490866CB
:100B0000704701460020934A506820F003000843D4
:100B1000506070478F48406800F00C0070470146F5
:100B200000208C4A506820F0F00008435060704765
:100B300001460020874A506820F4E0600843506076
:100B4000704701460020834A506820F4605040EA14
:100B5000C1005060704729B17E4A527A02437D4BF2
:100B60005A7204E07B4A527A82437A4B5A72704737
:100B70007B49D8310860704701460020754A5068AB
:100B800020F440400843506070470021714A2032F1
:100B90001170704A82F82010012802D004280AD16E
:100BA00004E001216B4A2032117005E00521694AF9
:100BB0002032117000E000BF00BF70476949086033
:100BC00070476449096A0143624A11627047654986
:100BD00044390860704730B500210022002400230A
:100BE0005C4D6D6805F00C0121B1042905D0082980
:100BF00023D105E05C4D056022E05B4D05601FE000
:100C0000544D6D6805F47012524D6D6805F48034D2
:100C1000022505EB92421CB9544D554305600BE08B
:100C20004C4D6D6805F400351DB1504D55430560C0
:100C300002E04D4D5543056002E04B4D056000BF9D
:100C400000BF444D6D6805F0F0010909484D6B5C2B
:100C50000568DD4045603F4D6D6805F4E061090AB7
:100C6000434D6B5C4568DD4085603A4D6D6805F429
:100C70006051C90A3E4D6B5C4568DD40C560354D2D
:100C80006D6805F44041890B3A4D6B5CC568B5FB56
:100C9000F3F5056130BD29B12E4A526902432D4B4F
:100CA0005A6104E02B4A526982432A4B5A617047C9
:100CB00029B1284A92690243264B9A6104E0254AE9
:100CC00092698243234B9A61704729B1214AD269C4
:100CD0000243204BDA6104E01E4AD26982431D4B75
:100CE000DA61704729B11B4AD2680243194BDA60B6
:100CF00004E0184AD2688243164BDA60704729B183
:100D0000144A12690243134B1A6104E0114A126932
:100D10008243104B1A61704712494039086070478E
:100D20000F49C86470470B49C87170470948406A49
:100D300040F0807007494862704701460020054A2C
:100D400092680A400AB1012000E000207047014982
:100D500088727047001002400000FFF8FFFFF6FEA7
:100D6000000042428004424200127A0000093D0025
:100D7000140000202400002000206F490860486013
:100D80008860C86048628862C8626C4888630020D6
:100D9000C86370470021684A516847F6FF62914373
:100DA000027D83681A4343681A43C3681A43036881
:100DB0001A4303691A4311435F4A51607047002187
:100DC0000175016041608160C160016170475C49EB
:100DD000086070475849096821F00301564A1160BC
:100DE000114609680143116070475348006800F0DC
:100DF0000300704729B1504AD26B02434E4BDA636D
:100E000004E04D4AD26B82434B4BDA6370474D4945
:100E1000086070470021484B02689A601A46D16802
:100E20006FF30A01D0E901231A43C3681A43036927
:100E30001A431143404AD16070470021016041606C
:100E40008160C160016170473B480069C0B2704772
:100E500008B501460020009037481430084400903F
:100E60000098006808BD0021334B02685A6242684E
:100E70009A621A46D16A21F0F701D0E902231A4397
:100E800003691A4343691A4311432B4AD1627047DD
:100E90004FF0FF310160002141608160C16001615C
:100EA000416170472448006B7047234880300068D8
:100EB000704721498031086070471F48806C704737
:100EC00020491431086070471E4918310860704786
:100ED0001C491C31086070471A492031086070476E
:100EE0001949086070471849091D086070470121B9
:100EF0008143154A08321160704713490C3108606C
:100F00007047014600200C4A526B0A400AB101208A
:100F100000E00020704708498863704701460020C0
:100F2000054A526B0A400AB1012000E000207047D8
:100F3000014988637047000000800140FF07C0003E
:100F4000A00030428C053042AC01304210B504465E
:100F5000FB48844209D101218803FFF7C3FE002129
:100F60004FF48040FFF7BEFE32E0F648844209D1DC
:100F700001214804FFF7C3FE00214FF40030FFF7C2
:100F8000BEFE25E0F048844209D101218804FFF724
:100F9000B6FE00214FF48020FFF7B1FE18E0EB48C9
:100FA000844209D10121C804FFF7A9FE00214FF4B2
:100FB0000020FFF7A4FE0BE0E548844208D10121A0
:100FC0000805FFF79CFE00214FF48010FFF797FE05
:100FD00010BD2DE9F04786B005460E460024A24616
:100FE00000BFA1460027B08900B100BF2F462C8A60
:100FF0004CF6FF700440F08804432C82AC894EF616
:10100000F3100440B08831890843718908430443D0
:10101000AC81AC8A4FF6FF400440B0890443AC82F7
:1010200001A8FFF7D8FDC648874202D1DDF810A01D
:1010300001E0DDF80CA0A88900F4004040B10AEB03
:10104000CA0000EB0A1031684900B0FBF1F807E074
:101050000AEBCA0000EB0A1031688900B0FBF1F816
:101060006420B8FBF0F004012009642101FB108921
:10107000A88900F4004040B1322000EBC900B0FB69
:10108000F1F000F00700044308E0322000EB091003
:101090006421B0FBF1F000F00F0004432C8106B096
:1010A000BDE8F0874FF41651016000218180C180B6
:1010B00001810C21418100218181704710B50246D8
:1010C0000020108A4FF2FF0318400B884C882343FE
:1010D0008C882343CC8823431843108210BD002101
:1010E000018041808180C180704721B1828942F4B2
:1010F0000052828104E082894DF6FF731A4082819A
:101100007047F0B50346002400260025002040F675
:101110006A17B94200D100BF1846C1F3421401F06A
:101120001F06012707FA06F5012C01D10C3004E057
:10113000022C01D1103000E014301AB107682F439F
:10114000076002E00768AF430760F0BD1AB1838A09
:101150000B43838202E0838A8B4383827047028A37
:101160004FF6F0731A400282028A0A4302827047E5
:1011700082894FF2FF731A40828182890A438281F9
:10118000704721B1828942F00202828104E08289A3
:101190004FF6FD731A4082817047028A4FF6DF7363
:1011A0001A400282028A0A430282704721B1028AEF
:1011B00042F48042028204E0028A4BF6FF731A4036
:1011C00002827047C1F30802828070470146888816
:1011D000C0F308007047818941F0010181817047A7
:1011E000028BD2B20283028B42EA01220283704751
:1011F000028B02F47F420283028B0A430283704710
:1012000021B1828A42F02002828204E0828A4FF673
:10121000DF731A408282704721B1828A42F0100245
:10122000828204E0828A4FF6EF731A40828270470E
:1012300021B1828A42F00802828204E0828A4FF65B
:10124000F7731A408282704721B1828942F40042CA
:10125000828103E08289C2F30E028281704721B14C
:10126000828A42F40062828204E0828A4FF2FF7333
:101270001A4082827047828A4FF6FB731A4082823C
:10128000828A0A438282704721B1828A42F0020236
:10129000828204E0828A4FF6FD731A408282704790
:1012A00002460020B1F5007F00D100BF13880B403B
:1012B0000BB1012000E00020704701F40072B2F58C
:1012C000007F00D100BFCA430280704770B502465C
:1012D000002400230025002040F66A16B14200D108
:1012E00000BFC1F3421501F01F03012606FA03F304
:1012F000012D02D19689334006E0022D02D1168AD3
:10130000334001E0968A33400C12012606FA04F4B9
:101310001688344013B10CB1012000E0002070BDEC
:1013200010B50022002340F66A14A14200D100BF8C
:101330000A1201249440A3B2DC43048010BD0000D3
:10134000003801400044004000480040004C00408C
:101350000050004010B5002400F0B4FE04461CB15B
:1013600004A001F0E1FB02E006A001F0DDFB00209B
:1013700010BD00005344B3F5CABCBBAFCAA7B0DC74
:101380000A0000005344B3F5CABCBBAFB3C9B9A649
:10139000A3A10000704700BFFEE700BFFEE700BF4B
:1013A000FEE700BFFEE7704770477047704710B513
:1013B00001F072FB10BD000070B504460D46E1B2AD
:1013C0003E48FFF7FFFE00BF80213C48FFF768FF63
:1013D0000028F9D0204670BD10B586B00446012122
:1013E0000420FFF765FC01218803FFF761FC012160
:1013F0000846FFF75DFC4FF40070ADF814000320C1
:101400008DF8160018208DF8170005A92C48FFF755
:1014100093F94FF48060ADF8140004208DF81700A4
:1014200005A92748FFF788F901940020ADF80800C6
:10143000ADF80A00ADF80C00ADF810000C20ADF8C6
:101440000E0001A91D48FFF7C4FD01211B48FFF74D
:101450004CFE40211948FFF730FF012240F2255190
:101460001648FFF74EFE25208DF8000003208DF86A
:1014700001008DF8020001208DF803006846FEF798
:1014800068FF06B010BD10B540F225510B48FFF7BC
:101490001DFF70B10948FFF799FEC4B22146074805
:1014A000FFF790FE00BF40210448FFF7F9FE012836
:1014B000F9D140210148FFF700FF10BD003801407D
:1014C0000008014008B50020FFF781FC0020FFF76D
:1014D00081FCFFF751FC00214FF48060FFF7DBFB3C
:1014E0004FF4F850ADF8000004208DF80300694671
:1014F000FA48FFF721F90420ADF800006946F848E2
:10150000FFF71AF908BD08B501213020FFF7D0FB1D
:101510004FF4F850ADF8000003208DF802001820B9
:101520008DF803006946ED48FFF706F90420ADF891
:1015300000006946EA48FFF7FFF801218802FFF73B
:10154000AAFB01210220FFF7A6FB08BD08B54FF456
:10155000C060FEF7F9FE31208DF8000000208DF804
:1015600001008DF8020001208DF803006846FEF7A7
:10157000F0FE08BD10B5DB48FFF73CF810BD30B5F4
:101580008BB005460C46D848FFF748F80021D748ED
:10159000FFF715F8D6480090019500200290A008AA
:1015A0000390002004908020059080000690800029
:1015B0000790002008904FF40050099000200A90F6
:1015C0006946CA48FEF7D0FF0121C848FEF7F7FF79
:1015D0000BB030BD30B58BB005460C46C248FFF7A6
:1015E0001DF80021C148FEF7EAFFC14800900195AF
:1015F00010200290A0080390002004908020059005
:101600008000069080000790002008904FF4005062
:10161000099000200A906946B448FEF7A5FF012111
:10162000B248FEF7CCFF0BB030BD014600BFB0485A
:101630008038406B00F045000028F8D040F2FF50A1
:10164000AB4A803A90631046406908221040C0B20D
:1016500070472DE9FC4107460D4600260024002076
:10166000009001900820A3490860102048604020A5
:1016700088600020C8604FF4806008610846FFF76A
:10168000C9FB1020FFF7D1FF044614B12046BDE886
:10169000FC8199480088000496490860372048601A
:1016A000402088600020C8604FF4806008610846D0
:1016B000FFF7B0FB3720FFF7B8FF04460CB1204618
:1016C000E5E74FF0FF308D49086008204860302082
:1016D00088600220C8600020086101204861084637
:1016E000FFF7C1FB00208349086033204860402099
:1016F00088600020C8604FF4806008610846FFF7EA
:1017000089FB3320FFF791FF04460CB12046BEE76A
:1017100009E04FF40010FFF7F4FB20B1FFF7C5FB21
:101720004DF82600761C72488038406B40F22A61E2
:1017300008400028EDD00820FFF7E3FB28B108207F
:10174000FFF7E9FB04242046A1E70220FFF7D9FBBD
:1017500028B10220FFF7DFFB0224204697E7202074
:10176000FFF7CFFB28B12020FFF7D5FB062420464A
:101770008DE74FF40070FFF7C4FB30B14FF40070F9
:10178000FFF7C9FB0724204681E740F2FF50FFF72F
:10179000C2FB00980006009901F47F4140EA012055
:1017A000009901F47F0140EA1120009940EA11609C
:1017B000686001980006019901F47F4140EA012028
:1017C000019901F47F0140EA1120019940EA11607A
:1017D000286020465BE77CB5054600240020009089
:1017E0000190FFF735FB00F0007010B10E24204689
:1017F0007CBD4149098888B26946FFF72AFF044643
:101800000CB12046F4E7012D36D1019800F4802078
:1018100000282ED038480088000436490860372058
:101820004860402088600020C860A802086108461F
:10183000FFF7F0FA3720FFF7F8FE04460CB1204618
:10184000D6E702202B4908600620486040208860C7
:101850000020C8604FF4806008610846FFF7DAFA9C
:101860000620FFF7E2FE04460CB12046C0E7204602
:10187000BEE725242046BBE7019800F48030F8B38A
:101880001D48008800041B4908603720486040203C
:1018900088600020C8604FF4806008610846FFF748
:1018A000B9FA3720FFF7C1FE04460CB120469FE786
:1018B0000020104908600620486040208860002011
:1018C000C8604FF4806008610846FFF7A3FA06205D
:1018D000FFF7ABFE0446A4B1204689E700100140A3
:1018E000001401400020001000F0001044040240E9
:1018F00080800140D80000202C000020EC00002057
:1019000001E0204674E72524204671E770B50446BF
:101910000025FB480068032802D12725284670BD12
:10192000F748006838B1F6480068012803D0F44849
:10193000006802282ED1B4F5805F02D12725284601
:10194000EDE7B4F5006F14D10120FFF744FF054621
:1019500005BB0120EB4908750020086048608860DD
:101960004FF40060C860002008610846FFF712FAD3
:1019700010E00020FFF72FFF05465DB90120E14987
:1019800008750020086048608860C86008610846E3
:10199000FFF700FA2846C2E770B504460025DA488A
:1019A00004600720D8494860402088600020C86053
:1019B0004FF4806008610846FFF72CFA0720FFF714
:1019C00034FE0546284670BD30B501460020002291
:1019D000CB4B1B7881F84E30CC4B1B88A1F84C3098
:1019E000CB4B1B681A0E93090B70C2F383034B7029
:1019F00002F003038B70C64B1B68C3F30742CA7027
:101A0000C34B1B88C3F307220A71C14B1A784A7172
:101A10005B681A0E1301CB80BD4B5B68C3F30742B2
:101A2000CB8843EA1213CB8002F00F030B72B84B42
:101A30009B88C3F30722D3094B72C2F380138B72C6
:101A4000C2F34013CB72C2F300130B7300234B732A
:101A5000AB4B1B681BB1AA4B1B68012B3CD19307F6
:101A60001B0D0B61AA4B1A790B6943EA82030B61C8
:101A7000A74B9B681A0E0B6943EA92130B61C2F3E2
:101A8000C2030B7502F007034B75A14B9B68C3F3B0
:101A9000074253098B75C2F38203CB7593075B0F23
:101AA0000B769B4B1B89C3F307220B7E43EAD213B1
:101AB0000B760B695B1C4B640C7E4B6CA41C0125E4
:101AC000A5406B434B640C7A0123A3408B64D1E99E
:101AD000113463434B6421E0894B1B68022B1DD1F9
:101AE0008B4B1A7993069B0A0B61894B9B681A0EE4
:101AF0000B6943EA02230B61854B9B68C3F30742E2
:101B00000B6913430B61824B1B89C3F307220B69DB
:101B10005B1CDB044B644FF400738B64C2F38013D3
:101B200001F8193F93065B0E4B70794B1A7A4B788C
:101B300043EAD2134B7002F07F038B70744BDB6867
:101B40001A0ED309CB70C2F341130B71C2F3820397
:101B50004B7193071B0F8B716D4BDB68C3F307420F
:101B60008B7943EA92138B71C2F34013CB7100233C
:101B70000B7202F001034B72654B9B89C3F3072282
:101B8000D3098B72C2F38013CB72C2F340130B7371
:101B9000C2F300134B73C2F381038B7302F0030390
:101BA000CB735B4B1A7B53080B7401234B74594B5B
:101BB0001B681A0ECA741939564B1B68C3F30742C7
:101BC0001402CC85534B1B88C3F30722CB8D1343E0
:101BD000CB85504B1A7814060C635B681A0E0B6B9E
:101BE00043EA02440C634B4B5B68C3F307420B6B45
:101BF00043EA02240C63474B9B88C3F307220B6B19
:101C000013430B63434B1A7934235A54414B9B685B
:101C10001A0E35235A543F4B9B68C3F307421406F0
:101C20008C633C4B1B89C3F307228B6B43EA024452
:101C30008C63384B1A7A8B6B43EA02248C63354BE6
:101C4000DB681A0E8B6B13438B63324BDB68C3F379
:101C500007423C235B5C43EA12143C235C541307A9
:101C60001C0DCC872B4B9B89C3F30722CB8F1343CF
:101C7000CB87284B1A7B540840235C540124412312
:101C80005C5430BD70B500252348446B01E0224808
:101C9000446B04F045000028F9D004F0040028B19A
:101CA00003250420FFF737F9284670BD04F0010032
:101CB00028B101250120FFF72EF92846F5E740F26B
:101CC000FF50FFF728F92846EFE72DE9F0410646D7
:101CD0000F464FF000081048456B01E00E48456B79
:101CE00005F045000028F9D005F00400B0B14FF030
:101CF00003080420FFF70FF94046BDE8F08100001B
:101D000028000020C0000020D80000202C00002067
:101D100040000020500000200080014005F001003C
:101D200030B14FF001080120FFF7F5F84046E4E735
:101D3000FFF78AF8B04203D04FF010084046DCE7C6
:101D400040F2FF50FFF7E7F80020FFF781F8044664
:101D500004F4604018B9200C38804046CDE704F404
:101D6000005008B11320C8E704F4804008B11020E7
:101D7000C3E704F4004008B10F20BEE74046BCE7CB
:101D800038B5002401200090FFF72FF810B9252462
:101D9000204638BDF8480068042828D00020F749BC
:101DA000086002204860C02088600020C8604FF4AE
:101DB000806008610846FFF72DF8FFF763FF0446CF
:101DC0000CB12046E5E70020FFF742F8EC49086037
:101DD0000420FFF73DF8EA4948600820FFF738F88B
:101DE000E74988600C20FFF733F8E549C860E2480E
:101DF000006858B1E0480068012807D0DE48006854
:101E0000062803D0DC480068022816D10020DB49F0
:101E1000086003204860402088600020C8604FF4BC
:101E2000806008610846FEF7F5FF69460320FFF76A
:101E30004CFF04460CB12046ABE7CF4800680428AD
:101E40002ED0BDF80000CF490860BDF800000004A6
:101E5000CA49086009204860C02088600020C86026
:101E60004FF4806008610846FEF7D4FFFFF70AFFD1
:101E700004460CB120468CE70020FEF7E9FFC2497A
:101E800008600420FEF7E4FFBF4948600820FEF721
:101E9000DFFFBD4988600C20FEF7DAFFBA49C86051
:101EA0000024204675E770B50025B848446B01E072
:101EB000B648446B04F045000028F9D004F0040053
:101EC00028B103250420FFF726F8284670BD40F20C
:101ED000FF50FFF720F82846F8E770B500264FF4CA
:101EE0008035AA48446B02E06D1EA848446B04F09C
:101EF000450008B9002DF7D115B104F0040028B150
:101F000003260420FFF707F8304670BD04F04000B8
:101F100028B100264020FEF7FEFF3046F5E73046A8
:101F2000F3E770B500254FF4803400E0641E24B15F
:101F30008020FEF7E6FF0028F8D014B903252846D4
:101F400070BD40F2FF50FEF7E6FF2846F8E72DE9A6
:101F5000F0410024002600250027A046B2208C492D
:101F600008750020086048608860C86008610846FD
:101F7000FEF710FF0320FEF72DFF0120FEF727FFDD
:101F800000207E49086048608860C8604FF4806027
:101F900008610846FEF73EFFFFF7C3FF044614B191
:101FA0002046BDE8F0814FF4D570744908600820E0
:101FB0004860402088600020C8604FF4806008615D
:101FC0000846FEF727FFFFF788FF04462CB90120DB
:101FD000694908604FF0804812E0002067490860B6
:101FE00037204860402088600020C8604FF480603F
:101FF00008610846FEF70EFF3720FFF716FB044680
:1020000000205E490860372048604020886000203A
:10201000C8604FF4806008610846FEF7FBFE372079
:10202000FFF703FB0446002C4AD136E00020534959
:10203000086037204860402088600020C8604FF466
:10204000806008610846FEF7E5FE3720FFF7EDFAED
:1020500004460CB12046A4E74E4848EA0000474930
:10206000086029204860402088600020C8604FF444
:10207000806008610846FEF7CDFEFFF714FF0446B6
:102080000CB120468DE70020FEF7E2FE0646012057
:1020900080EAD67080F001076D1C1FB94FF6FF7003
:1020A0008542C3D34FF6FF70854202D31B242046DE
:1020B00077E706F08040061E02D002202E49086015
:1020C00020466EE710B50024FFF740FAFFF71BFA31
:1020D000FEF752FEFFF73BFF04460CB1204610BD51
:1020E000FFF74EFE04460CB12046F8E701202849D0
:1020F00008750020086048608860C860086108466C
:10210000FEF748FE1CB92448FFF75EFC044634B9CC
:102110002149B1F84C100804FFF73EFC044624B9ED
:102120004FF40060FFF7F2FB04462046D7E770B596
:10213000044600251348008800041449886040F2D2
:102140004D40C8600D20FFF770FA05460DB12846D6
:1021500070BD0E48406920602846F9E708B50020A8
:1021600000906846FFF7E3FF08B1FF2008BD009824
:10217000C0F34320FAE7000028000020D800002028
:10218000500000202C000020400000200080014072
:10219000C0000020000010807000002010B5042452
:1021A000FFF7DCFF0446042C01D1002010BDFF2CFA
:1021B00001D10220FAE70120F8E710B50024002041
:1021C000FEF708FE204610BD70B504460025002627
:1021D0000020FEF73DFE00F0007010B10E252846ED
:1021E00070BD4020FC490860102048604020886095
:1021F0000020C8604FF4806008610846FEF70AFEC0
:102200001020FFF712FA05460DB12846E8E7F3481B
:1022100000880004F049086037204860402088604A
:102220000020C8604FF4806008610846FEF7F2FDA8
:102230003720FFF7FAF905460DB12846D0E74FF0F1
:10224000FF30E74908604020486060208860022035
:10225000C86000200861012048610846FEF703FEBF
:102260000020DD4908600D20486040208860002083
:10227000C8604FF4806008610846FEF7CBFD0D2072
:10228000FFF7D3F905460DB12846A9E70EE04FF454
:102290000040FEF736FE48B1002604E0FEF705FEDA
:1022A00044F82600761C082EF8D32034CD48406B25
:1022B00040F22A6108400028E9D00820FEF721FEFC
:1022C00028B10820FEF727FE0425284688E70220CB
:1022D000FEF717FE28B10220FEF71DFE0225284654
:1022E0007EE72020FEF70DFE28B12020FEF713FE2A
:1022F0000625284674E74FF40070FEF702FE30B161
:102300004FF40070FEF707FE0725284668E703E054
:10231000FEF7CBFD2060241D4FF40010FEF7F1FD09
:102320000028F5D140F2FF50FEF7F5FD284657E7AB
:1023300070B5044600260025AB48FFF745FF06466A
:102340000EB1304670BDA848007885092570A648B2
:102350000078C0F340156570A34885782802608036
:10236000A148C5786088284360809F480579280681
:1023700060609D484579606840EA054060609A4821
:102380008579606840EA052060609748C579606893
:10239000284360609448057A2572457A6572807A90
:1023A0000509A5729048C57A2802A0818E48057B50
:1023B000A0892843A0818C48407B8508A5738A4862
:1023C000407B00F00305E5733046BBE72DE9F041A3
:1023D00007460D46144600260020844908708449AB
:1023E0000860844908607F49C86283480068022801
:1023F00001D104026D0A78480460102076494860D3
:10240000402088600020C8604FF480600861084662
:10241000FEF700FD1020FFF708F9064616B130461A
:10242000BDE8F0814FF0FF306D4908600846446018
:10243000902088600220C860002008610120486167
:102440000846FEF710FD64480560112062494860A7
:10245000402088600020C8604FF480600861084612
:10246000FEF7D8FC1120FFF7E0F806460EB1304623
:10247000D6E701210802FEF7BDFC0120FEF7C7FCEC
:1024800021463846FFF77BF83046C9E72DE9F04191
:1024900080460D4614461E4600270020534908700A
:1024A0005349086001205349086000204D49C86223
:1024B00051480068022801D104026D0A46480460B0
:1024C000102045494860402088600020C8604FF4D3
:1024D000806008610846FEF79DFC1020FFF7A5F814
:1024E000074617B13846BDE8F0814FF0FF303C4950
:1024F000086006FB04F04860902088600220C860F5
:1025000000200861012048610846FEF7ACFC324813
:102510000560122030494860402088600020C86073
:102520004FF4806008610846FEF774FC1220FFF744
:102530007CF807460FB13846D5E701210802FEF7BF
:1025400059FC0120FEF763FC06FB04F14046FFF74F
:1025500016F83846C7E710B5002400BFFFF70AF8A1
:1025600030B92348006818B9204800780028F5D011
:102570001E48007810B11D48007810BD2046FCE7C9
:102580002DE9F04107460D46144600260020174964
:10259000087017490860174908601249C862164850
:1025A0000068022801D104026D0A0B480460102063
:1025B00009494860402088600020C8604FF480606E
:1025C00008610846FEF726FC1020FFF72EF80646A5
:1025D000A6B13046BDE8F081D80000202C000020D4
:1025E000EC0000200080014060000020340000204A
:1025F000380000203000002028000020F848056046
:102600001820F7494860402088600020C8604FF4D7
:10261000806008610846FEF7FDFB1820FFF705F80B
:1026200006460EB13046D5E74FF0FF30ED49086061
:1026300008464460902088600020C860086101203E
:1026400048610846FEF70FFC01210802FEF7D2FBA5
:1026500021463846FEF7BEFF0120FEF7D8FB304684
:10266000B8E72DE9F84380460E4617461C4600257C
:1026700000200090DC490870DC4908600120DC493A
:1026800008600020DB49C862DB480068022801D1ED
:102690000702760AD94800880004D149086037202B
:1026A0004860402088600020C8604FF48060086166
:1026B0000846FEF7AFFB3720FEF7B7FF054615B11A
:1026C0002846BDE8F883C64804601720C44948601E
:1026D000402088600020C8604FF480600861084690
:1026E000FEF798FB1720FEF7A0FF05460DB1284620
:1026F000E7E7BB4806601920B94948604020886078
:102700000020C8604FF4806008610846FEF782FB35
:102710001920FEF78AFF05460DB12846D1E74FF094
:10272000FF30B049086004FB07F0486090208860E3
:102730000020C8600861012048610846FEF793FB4D
:1027400001210802FEF756FB0120FEF760FB04FBA7
:1027500007F14046FEF73EFF2846B2E710B50024D9
:1027600000BFFEF707FF30B9A048006818B99E48BF
:1027700000780028F5D09C48007810B19A4800787D
:1027800010BD40F2FF50FEF7C6FB2046F8E799481F
:10279000406B00F4405008B1012070470020FCE776
:1027A00010B5002400209349886040F24C40C86076
:1027B0000C20FEF73AFF0446204610BD7CB50446C7
:1027C00000250020019000908C4800880004844976
:1027D00008600D204860402088600020C8604FF4E9
:1027E000806008610846FEF715FB8248406B009048
:1027F00002E08048406B0090009800F045000028FF
:10280000F7D0009800F0040028B103250420FEF75B
:1028100082FB28467CBD009800F0010028B101250C
:102820000120FEF778FB2846F4E7FEF70DFB009049
:1028300000980D2802D010252846EBE740F2FF5003
:10284000FEF769FB0020FEF703FB01900198C0F33F
:10285000432020706A490198084008B92846D9E702
:10286000019800F0004008B11C20D3E7019800F067
:10287000804008B10920CDE7019800F0005008B170
:102880000A20C7E7019800F0805008B10B20C1E78B
:10289000019800F0006008B10C20BBE7019800F03F
:1028A000806008B10D20B5E7019800F0807008B194
:1028B0000E20AFE7019800F4000008B10F20A9E74F
:1028C000019800F4800008B11020A3E7019800F4FB
:1028D000001008B111209DE7019800F4801008B1A4
:1028E000122097E7019800F4002008B1132091E727
:1028F000019800F4802008B114208BE7019800F4BF
:10290000003008B1152085E7019800F4803008B147
:1029100016207FE7019800F4004008B1172079E7FE
:10292000019800F4804008B1182073E7019800F482
:10293000005008B119206DE7019800F0080008B1B7
:102940001A2067E7284665E72DE9FC4105460E4653
:10295000002400270020019000902A484068202190
:1029600001EA105018B925242046BDE8FC81214811
:102970004068C0B2801C2449B1FBF0F001900020F7
:10298000FEF766FA00F0007010B10E242046ECE766
:1029900019480068022801D16D0A760A16480068B5
:1029A00038B115480068012803D013480068022890
:1029B00042D10B48056020200949486040208860CA
:1029C0000020C8604FF4806008610846FEF722FAD4
:1029D0002020FEF72AFE0446C4B12046C5E70000C9
:1029E000D8000020EC000020340000203800002037
:1029F0003000002000800140280000202C00002032
:102A000008E0FFFD40000020C0D401003848066007
:102A1000212037494860402088600020C8604FF47A
:102A2000806008610846FEF7F5F92120FEF7FDFDFC
:102A300004460CB1204698E700202D490860262066
:102A40004860402088600020C8604FF480600861C2
:102A50000846FEF7DFF92620FEF7E7FD04460CB135
:102A6000204682E7002700E07F1C01988742FBD3C5
:102A70006846FFF7A3FE044603E06846FFF79EFEA4
:102A800004463CB99DF800000728F6D09DF80000E8
:102A90000628F2D0204668E710B5164800680128DD
:102AA0000BD100201449886040F24C40C8600C20D3
:102AB000FEF7BBFD1149087002E000200F490870C5
:102AC0004FF48070FEF734FA00214FF48070FEF767
:102AD00091F901200A4908600848007810BD0146B4
:102AE000002002E04910421CD0B20129FAD17047FF
:102AF000D800002030000020008001403400002079
:102B000038000020064C074D06E0E06840F0010365
:102B100094E8070098471034AC42F6D3FDF70CFB5D
:102B2000782B0008982B0008014A024900F013B8DE
:102B3000B91300083C00002002E008C8121F08C1B9
:102B4000002AFAD170477047002001E001C1121F2E
:102B5000002AFBD170472DE9F04116460F46044686
:102B6000002503E03946B047641C6D1C207800281E
:102B7000F8D12846BDE8F081982B0008000000201D
:102B800040000000382B0008D82B0008400000202F
:102B9000C8040000482B000800A24A0400000000FE
:102BA00000000000010203040607080900000000FD
:102BB00001020304010203040607080902040608CF
:102BC0000000000000000000000000000000000005
:082BD0000000000000000000FD
:0400000508000131BD
:00000001FF
